{
	"FundMe.sol": {
		"FundMe": {
			"abi": [
				{
					"inputs": [],
					"stateMutability": "payable",
					"type": "constructor"
				},
				{
					"inputs": [
						{
							"internalType": "address",
							"name": "funder",
							"type": "address"
						}
					],
					"name": "addressToAmountFunded",
					"outputs": [
						{
							"internalType": "uint256",
							"name": "amountFunded",
							"type": "uint256"
						}
					],
					"stateMutability": "view",
					"type": "function"
				},
				{
					"inputs": [],
					"name": "fund",
					"outputs": [],
					"stateMutability": "payable",
					"type": "function"
				},
				{
					"inputs": [
						{
							"internalType": "uint256",
							"name": "",
							"type": "uint256"
						}
					],
					"name": "funders",
					"outputs": [
						{
							"internalType": "address",
							"name": "",
							"type": "address"
						}
					],
					"stateMutability": "view",
					"type": "function"
				},
				{
					"inputs": [],
					"name": "minimumUsd",
					"outputs": [
						{
							"internalType": "uint256",
							"name": "",
							"type": "uint256"
						}
					],
					"stateMutability": "view",
					"type": "function"
				},
				{
					"inputs": [],
					"name": "withdraw",
					"outputs": [],
					"stateMutability": "nonpayable",
					"type": "function"
				}
			],
			"devdoc": {
				"kind": "dev",
				"methods": {},
				"version": 1
			},
			"evm": {
				"assembly": "    /* \"FundMe.sol\":111:1521  contract FundMe {... */\n  mstore(0x40, 0x80)\n    /* \"FundMe.sol\":261:265  5e18 */\n  0x4563918244f40000\n    /* \"FundMe.sol\":236:265  uint public minimumUsd = 5e18 */\n  0x00\n  sstore\n    /* \"FundMe.sol\":111:1521  contract FundMe {... */\n  dataSize(sub_0)\n  dup1\n  dataOffset(sub_0)\n  0x00\n  codecopy\n  0x00\n  return\nstop\n\nsub_0: assembly {\n        /* \"FundMe.sol\":111:1521  contract FundMe {... */\n      mstore(0x40, 0x80)\n      jumpi(tag_1, lt(calldatasize, 0x04))\n      shr(0xe0, calldataload(0x00))\n      dup1\n      0x098de820\n      eq\n      tag_2\n      jumpi\n      dup1\n      0x3ccfd60b\n      eq\n      tag_3\n      jumpi\n      dup1\n      0x3e47d6f3\n      eq\n      tag_4\n      jumpi\n      dup1\n      0xb60d4288\n      eq\n      tag_5\n      jumpi\n      dup1\n      0xdc0d3dff\n      eq\n      tag_6\n      jumpi\n    tag_1:\n      0x00\n      dup1\n      revert\n        /* \"FundMe.sol\":236:265  uint public minimumUsd = 5e18 */\n    tag_2:\n      callvalue\n      dup1\n      iszero\n      tag_7\n      jumpi\n      0x00\n      dup1\n      revert\n    tag_7:\n      pop\n      tag_8\n      tag_9\n      jump\t// in\n    tag_8:\n      mload(0x40)\n      tag_10\n      swap2\n      swap1\n      tag_11\n      jump\t// in\n    tag_10:\n      mload(0x40)\n      dup1\n      swap2\n      sub\n      swap1\n      return\n        /* \"FundMe.sol\":610:1513  function withdraw() public{... */\n    tag_3:\n      callvalue\n      dup1\n      iszero\n      tag_12\n      jumpi\n      0x00\n      dup1\n      revert\n    tag_12:\n      pop\n      tag_13\n      tag_14\n      jump\t// in\n    tag_13:\n      stop\n        /* \"FundMe.sol\":302:379  mapping (address funder => uint256 amountFunded) public addressToAmountFunded */\n    tag_4:\n      callvalue\n      dup1\n      iszero\n      tag_15\n      jumpi\n      0x00\n      dup1\n      revert\n    tag_15:\n      pop\n      tag_16\n      0x04\n      dup1\n      calldatasize\n      sub\n      dup2\n      add\n      swap1\n      tag_17\n      swap2\n      swap1\n      tag_18\n      jump\t// in\n    tag_17:\n      tag_19\n      jump\t// in\n    tag_16:\n      mload(0x40)\n      tag_20\n      swap2\n      swap1\n      tag_11\n      jump\t// in\n    tag_20:\n      mload(0x40)\n      dup1\n      swap2\n      sub\n      swap1\n      return\n        /* \"FundMe.sol\":386:604  function fund() public payable {... */\n    tag_5:\n      tag_21\n      tag_22\n      jump\t// in\n    tag_21:\n      stop\n        /* \"FundMe.sol\":272:296  address[] public funders */\n    tag_6:\n      callvalue\n      dup1\n      iszero\n      tag_23\n      jumpi\n      0x00\n      dup1\n      revert\n    tag_23:\n      pop\n      tag_24\n      0x04\n      dup1\n      calldatasize\n      sub\n      dup2\n      add\n      swap1\n      tag_25\n      swap2\n      swap1\n      tag_26\n      jump\t// in\n    tag_25:\n      tag_27\n      jump\t// in\n    tag_24:\n      mload(0x40)\n      tag_28\n      swap2\n      swap1\n      tag_29\n      jump\t// in\n    tag_28:\n      mload(0x40)\n      dup1\n      swap2\n      sub\n      swap1\n      return\n        /* \"FundMe.sol\":236:265  uint public minimumUsd = 5e18 */\n    tag_9:\n      sload(0x00)\n      dup2\n      jump\t// out\n        /* \"FundMe.sol\":610:1513  function withdraw() public{... */\n    tag_14:\n        /* \"FundMe.sol\":790:809  uint256 funderIndex */\n      0x00\n        /* \"FundMe.sol\":786:968  for(uint256 funderIndex = 0; funderIndex < funders.length; funderIndex++){... */\n    tag_31:\n        /* \"FundMe.sol\":829:836  funders */\n      0x01\n        /* \"FundMe.sol\":829:843  funders.length */\n      dup1\n      sload\n      swap1\n      pop\n        /* \"FundMe.sol\":815:826  funderIndex */\n      dup2\n        /* \"FundMe.sol\":815:843  funderIndex < funders.length */\n      lt\n        /* \"FundMe.sol\":786:968  for(uint256 funderIndex = 0; funderIndex < funders.length; funderIndex++){... */\n      iszero\n      tag_32\n      jumpi\n        /* \"FundMe.sol\":873:887  address funder */\n      0x00\n        /* \"FundMe.sol\":890:897  funders */\n      0x01\n        /* \"FundMe.sol\":898:909  funderIndex */\n      dup3\n        /* \"FundMe.sol\":890:910  funders[funderIndex] */\n      dup2\n      sload\n      dup2\n      lt\n      tag_34\n      jumpi\n      tag_35\n      tag_36\n      jump\t// in\n    tag_35:\n    tag_34:\n      swap1\n      0x00\n      mstore\n      keccak256(0x00, 0x20)\n      add\n      0x00\n      swap1\n      sload\n      swap1\n      0x0100\n      exp\n      swap1\n      div\n      0xffffffffffffffffffffffffffffffffffffffff\n      and\n        /* \"FundMe.sol\":873:910  address funder = funders[funderIndex] */\n      swap1\n      pop\n        /* \"FundMe.sol\":956:957  0 */\n      0x00\n        /* \"FundMe.sol\":924:945  addressToAmountFunded */\n      0x02\n        /* \"FundMe.sol\":924:953  addressToAmountFunded[funder] */\n      0x00\n        /* \"FundMe.sol\":946:952  funder */\n      dup4\n        /* \"FundMe.sol\":924:953  addressToAmountFunded[funder] */\n      0xffffffffffffffffffffffffffffffffffffffff\n      and\n      0xffffffffffffffffffffffffffffffffffffffff\n      and\n      dup2\n      mstore\n      0x20\n      add\n      swap1\n      dup2\n      mstore\n      0x20\n      add\n      0x00\n      keccak256\n        /* \"FundMe.sol\":924:957  addressToAmountFunded[funder] = 0 */\n      dup2\n      swap1\n      sstore\n      pop\n        /* \"FundMe.sol\":859:968  {... */\n      pop\n        /* \"FundMe.sol\":845:858  funderIndex++ */\n      dup1\n      dup1\n      tag_38\n      swap1\n      tag_39\n      jump\t// in\n    tag_38:\n      swap2\n      pop\n      pop\n        /* \"FundMe.sol\":786:968  for(uint256 funderIndex = 0; funderIndex < funders.length; funderIndex++){... */\n      jump(tag_31)\n    tag_32:\n      pop\n        /* \"FundMe.sol\":1024:1025  0 */\n      0x00\n        /* \"FundMe.sol\":1010:1026  new address[](0) */\n      0xffffffffffffffff\n      dup2\n      gt\n      iszero\n      tag_40\n      jumpi\n      tag_41\n      tag_42\n      jump\t// in\n    tag_41:\n    tag_40:\n      mload(0x40)\n      swap1\n      dup1\n      dup3\n      mstore\n      dup1\n      0x20\n      mul\n      0x20\n      add\n      dup3\n      add\n      0x40\n      mstore\n      dup1\n      iszero\n      tag_43\n      jumpi\n      dup2\n      0x20\n      add\n      0x20\n      dup3\n      mul\n      dup1\n      calldatasize\n      dup4\n      calldatacopy\n      dup1\n      dup3\n      add\n      swap2\n      pop\n      pop\n      swap1\n      pop\n    tag_43:\n      pop\n        /* \"FundMe.sol\":1000:1007  funders */\n      0x01\n        /* \"FundMe.sol\":1000:1026  funders = new address[](0) */\n      swap1\n      dup1\n      mload\n      swap1\n      0x20\n      add\n      swap1\n      tag_44\n      swap3\n      swap2\n      swap1\n      tag_45\n      jump\t// in\n    tag_44:\n      pop\n        /* \"FundMe.sol\":1173:1183  msg.sender */\n      caller\n        /* \"FundMe.sol\":1165:1193  payable(msg.sender).transfer */\n      0xffffffffffffffffffffffffffffffffffffffff\n      and\n        /* \"FundMe.sol\":1165:1216  payable(msg.sender).transfer(address(this).balance) */\n      0x08fc\n        /* \"FundMe.sol\":1194:1215  address(this).balance */\n      selfbalance\n        /* \"FundMe.sol\":1165:1216  payable(msg.sender).transfer(address(this).balance) */\n      swap1\n      dup2\n      iszero\n      mul\n      swap1\n      mload(0x40)\n      0x00\n      mload(0x40)\n      dup1\n      dup4\n      sub\n      dup2\n      dup6\n      dup9\n      dup9\n      call\n      swap4\n      pop\n      pop\n      pop\n      pop\n      iszero\n      dup1\n      iszero\n      tag_47\n      jumpi\n      returndatasize\n      0x00\n      dup1\n      returndatacopy\n      revert(0x00, returndatasize)\n    tag_47:\n      pop\n        /* \"FundMe.sol\":1242:1258  bool sendSuccess */\n      0x00\n        /* \"FundMe.sol\":1269:1279  msg.sender */\n      caller\n        /* \"FundMe.sol\":1261:1285  payable(msg.sender).send */\n      0xffffffffffffffffffffffffffffffffffffffff\n      and\n        /* \"FundMe.sol\":1261:1308  payable(msg.sender).send(address(this).balance) */\n      0x08fc\n        /* \"FundMe.sol\":1286:1307  address(this).balance */\n      selfbalance\n        /* \"FundMe.sol\":1261:1308  payable(msg.sender).send(address(this).balance) */\n      swap1\n      dup2\n      iszero\n      mul\n      swap1\n      mload(0x40)\n      0x00\n      mload(0x40)\n      dup1\n      dup4\n      sub\n      dup2\n      dup6\n      dup9\n      dup9\n      call\n      swap4\n      pop\n      pop\n      pop\n      pop\n        /* \"FundMe.sol\":1242:1308  bool sendSuccess = payable(msg.sender).send(address(this).balance) */\n      swap1\n      pop\n        /* \"FundMe.sol\":1326:1337  sendSuccess */\n      dup1\n        /* \"FundMe.sol\":1318:1353  require(sendSuccess, \"Send failed\") */\n      tag_49\n      jumpi\n      mload(0x40)\n      0x08c379a000000000000000000000000000000000000000000000000000000000\n      dup2\n      mstore\n      0x04\n      add\n      tag_50\n      swap1\n      tag_51\n      jump\t// in\n    tag_50:\n      mload(0x40)\n      dup1\n      swap2\n      sub\n      swap1\n      revert\n    tag_49:\n        /* \"FundMe.sol\":1380:1396  bool callSuccess */\n      0x00\n        /* \"FundMe.sol\":1410:1420  msg.sender */\n      caller\n        /* \"FundMe.sol\":1402:1426  payable(msg.sender).call */\n      0xffffffffffffffffffffffffffffffffffffffff\n      and\n        /* \"FundMe.sol\":1434:1455  address(this).balance */\n      selfbalance\n        /* \"FundMe.sol\":1402:1460  payable(msg.sender).call{value: address(this).balance}(\"\") */\n      mload(0x40)\n      tag_52\n      swap1\n      tag_53\n      jump\t// in\n    tag_52:\n      0x00\n      mload(0x40)\n      dup1\n      dup4\n      sub\n      dup2\n      dup6\n      dup8\n      gas\n      call\n      swap3\n      pop\n      pop\n      pop\n      returndatasize\n      dup1\n      0x00\n      dup2\n      eq\n      tag_56\n      jumpi\n      mload(0x40)\n      swap2\n      pop\n      and(add(returndatasize, 0x3f), not(0x1f))\n      dup3\n      add\n      0x40\n      mstore\n      returndatasize\n      dup3\n      mstore\n      returndatasize\n      0x00\n      0x20\n      dup5\n      add\n      returndatacopy\n      jump(tag_55)\n    tag_56:\n      0x60\n      swap2\n      pop\n    tag_55:\n      pop\n        /* \"FundMe.sol\":1379:1460  (bool callSuccess, ) = payable(msg.sender).call{value: address(this).balance}(\"\") */\n      pop\n      swap1\n      pop\n        /* \"FundMe.sol\":1478:1489  callSuccess */\n      dup1\n        /* \"FundMe.sol\":1470:1505  require(callSuccess, \"Call failed\") */\n      tag_57\n      jumpi\n      mload(0x40)\n      0x08c379a000000000000000000000000000000000000000000000000000000000\n      dup2\n      mstore\n      0x04\n      add\n      tag_58\n      swap1\n      tag_59\n      jump\t// in\n    tag_58:\n      mload(0x40)\n      dup1\n      swap2\n      sub\n      swap1\n      revert\n    tag_57:\n        /* \"FundMe.sol\":636:1513  {... */\n      pop\n      pop\n        /* \"FundMe.sol\":610:1513  function withdraw() public{... */\n      jump\t// out\n        /* \"FundMe.sol\":302:379  mapping (address funder => uint256 amountFunded) public addressToAmountFunded */\n    tag_19:\n      mstore(0x20, 0x02)\n      dup1\n      0x00\n      mstore\n      keccak256(0x00, 0x40)\n      0x00\n      swap2\n      pop\n      swap1\n      pop\n      sload\n      dup2\n      jump\t// out\n        /* \"FundMe.sol\":386:604  function fund() public payable {... */\n    tag_22:\n        /* \"FundMe.sol\":468:478  minimumUsd */\n      sload(0x00)\n        /* \"FundMe.sol\":435:464  msg.value.getConversionRate() */\n      tag_61\n        /* \"FundMe.sol\":435:444  msg.value */\n      callvalue\n        /* \"FundMe.sol\":435:462  msg.value.getConversionRate */\n      tag_62\n        /* \"FundMe.sol\":435:464  msg.value.getConversionRate() */\n      jump\t// in\n    tag_61:\n        /* \"FundMe.sol\":435:478  msg.value.getConversionRate() >= minimumUsd */\n      lt\n      iszero\n        /* \"FundMe.sol\":427:507  require(msg.value.getConversionRate() >= minimumUsd, \"didn't send enough ether\") */\n      tag_63\n      jumpi\n      mload(0x40)\n      0x08c379a000000000000000000000000000000000000000000000000000000000\n      dup2\n      mstore\n      0x04\n      add\n      tag_64\n      swap1\n      tag_65\n      jump\t// in\n    tag_64:\n      mload(0x40)\n      dup1\n      swap2\n      sub\n      swap1\n      revert\n    tag_63:\n        /* \"FundMe.sol\":517:524  funders */\n      0x01\n        /* \"FundMe.sol\":530:540  msg.sender */\n      caller\n        /* \"FundMe.sol\":517:541  funders.push(msg.sender) */\n      swap1\n      dup1\n      0x01\n      dup2\n      sload\n      add\n      dup1\n      dup3\n      sstore\n      dup1\n      swap2\n      pop\n      pop\n      0x01\n      swap1\n      sub\n      swap1\n      0x00\n      mstore\n      keccak256(0x00, 0x20)\n      add\n      0x00\n      swap1\n      swap2\n      swap1\n      swap2\n      swap1\n      swap2\n      0x0100\n      exp\n      dup2\n      sload\n      dup2\n      0xffffffffffffffffffffffffffffffffffffffff\n      mul\n      not\n      and\n      swap1\n      dup4\n      0xffffffffffffffffffffffffffffffffffffffff\n      and\n      mul\n      or\n      swap1\n      sstore\n      pop\n        /* \"FundMe.sol\":588:597  msg.value */\n      callvalue\n        /* \"FundMe.sol\":551:572  addressToAmountFunded */\n      0x02\n        /* \"FundMe.sol\":551:584  addressToAmountFunded[msg.sender] */\n      0x00\n        /* \"FundMe.sol\":573:583  msg.sender */\n      caller\n        /* \"FundMe.sol\":551:584  addressToAmountFunded[msg.sender] */\n      0xffffffffffffffffffffffffffffffffffffffff\n      and\n      0xffffffffffffffffffffffffffffffffffffffff\n      and\n      dup2\n      mstore\n      0x20\n      add\n      swap1\n      dup2\n      mstore\n      0x20\n      add\n      0x00\n      keccak256\n      0x00\n        /* \"FundMe.sol\":551:597  addressToAmountFunded[msg.sender] += msg.value */\n      dup3\n      dup3\n      sload\n      tag_67\n      swap2\n      swap1\n      tag_68\n      jump\t// in\n    tag_67:\n      swap3\n      pop\n      pop\n      dup2\n      swap1\n      sstore\n      pop\n        /* \"FundMe.sol\":386:604  function fund() public payable {... */\n      jump\t// out\n        /* \"FundMe.sol\":272:296  address[] public funders */\n    tag_27:\n      0x01\n      dup2\n      dup2\n      sload\n      dup2\n      lt\n      tag_69\n      jumpi\n      0x00\n      dup1\n      revert\n    tag_69:\n      swap1\n      0x00\n      mstore\n      keccak256(0x00, 0x20)\n      add\n      0x00\n      swap2\n      pop\n      sload\n      swap1\n      0x0100\n      exp\n      swap1\n      div\n      0xffffffffffffffffffffffffffffffffffffffff\n      and\n      dup2\n      jump\t// out\n        /* \"PriceConverter.sol\":603:876  function getConversionRate(uint256 ethAmount) internal  view returns (uint256) {... */\n    tag_62:\n        /* \"PriceConverter.sol\":673:680  uint256 */\n      0x00\n        /* \"PriceConverter.sol\":744:760  uint256 ethPrice */\n      dup1\n        /* \"PriceConverter.sol\":763:773  getPrice() */\n      tag_72\n        /* \"PriceConverter.sol\":763:771  getPrice */\n      tag_73\n        /* \"PriceConverter.sol\":763:773  getPrice() */\n      jump\t// in\n    tag_72:\n        /* \"PriceConverter.sol\":744:773  uint256 ethPrice = getPrice() */\n      swap1\n      pop\n        /* \"PriceConverter.sol\":783:805  uint256 ethAmountInUsd */\n      0x00\n        /* \"PriceConverter.sol\":833:837  1e18 */\n      0x0de0b6b3a7640000\n        /* \"PriceConverter.sol\":820:829  ethAmount */\n      dup5\n        /* \"PriceConverter.sol\":809:817  ethPrice */\n      dup4\n        /* \"PriceConverter.sol\":809:829  ethPrice * ethAmount */\n      tag_74\n      swap2\n      swap1\n      tag_75\n      jump\t// in\n    tag_74:\n        /* \"PriceConverter.sol\":808:837  (ethPrice * ethAmount) / 1e18 */\n      tag_76\n      swap2\n      swap1\n      tag_77\n      jump\t// in\n    tag_76:\n        /* \"PriceConverter.sol\":783:837  uint256 ethAmountInUsd = (ethPrice * ethAmount) / 1e18 */\n      swap1\n      pop\n        /* \"PriceConverter.sol\":855:869  ethAmountInUsd */\n      dup1\n        /* \"PriceConverter.sol\":848:869  return ethAmountInUsd */\n      swap3\n      pop\n      pop\n      pop\n        /* \"PriceConverter.sol\":603:876  function getConversionRate(uint256 ethAmount) internal  view returns (uint256) {... */\n      swap2\n      swap1\n      pop\n      jump\t// out\n        /* \"PriceConverter.sol\":200:597  function getPrice() internal view returns (uint256){... */\n    tag_73:\n        /* \"PriceConverter.sol\":243:250  uint256 */\n      0x00\n        /* \"PriceConverter.sol\":337:368  AggregatorV3Interface priceFeed */\n      dup1\n        /* \"PriceConverter.sol\":393:435  0x1b44F3514812d835EB1BDB0acB33d3fA3351Ee43 */\n      0x1b44f3514812d835eb1bdb0acb33d3fa3351ee43\n        /* \"PriceConverter.sol\":337:436  AggregatorV3Interface priceFeed = AggregatorV3Interface(0x1b44F3514812d835EB1BDB0acB33d3fA3351Ee43) */\n      swap1\n      pop\n        /* \"PriceConverter.sol\":449:461  int256 price */\n      0x00\n        /* \"PriceConverter.sol\":468:477  priceFeed */\n      dup2\n        /* \"PriceConverter.sol\":468:493  priceFeed.latestRoundData */\n      0xffffffffffffffffffffffffffffffffffffffff\n      and\n      0xfeaf968c\n        /* \"PriceConverter.sol\":468:495  priceFeed.latestRoundData() */\n      mload(0x40)\n      dup2\n      0xffffffff\n      and\n      0xe0\n      shl\n      dup2\n      mstore\n      0x04\n      add\n      0xa0\n      mload(0x40)\n      dup1\n      dup4\n      sub\n      dup2\n      dup7\n      gas\n      staticcall\n      iszero\n      dup1\n      iszero\n      tag_80\n      jumpi\n      returndatasize\n      0x00\n      dup1\n      returndatacopy\n      revert(0x00, returndatasize)\n    tag_80:\n      pop\n      pop\n      pop\n      pop\n      mload(0x40)\n      returndatasize\n      not(0x1f)\n      0x1f\n      dup3\n      add\n      and\n      dup3\n      add\n      dup1\n      0x40\n      mstore\n      pop\n      dup2\n      add\n      swap1\n      tag_81\n      swap2\n      swap1\n      tag_82\n      jump\t// in\n    tag_81:\n        /* \"PriceConverter.sol\":446:495  (, int256 price,,, )= priceFeed.latestRoundData() */\n      pop\n      pop\n      pop\n      swap2\n      pop\n      pop\n        /* \"PriceConverter.sol\":586:590  1e10 */\n      0x02540be400\n        /* \"PriceConverter.sol\":577:582  price */\n      dup2\n        /* \"PriceConverter.sol\":569:590  uint256(price) * 1e10 */\n      tag_83\n      swap2\n      swap1\n      tag_75\n      jump\t// in\n    tag_83:\n        /* \"PriceConverter.sol\":562:590  return uint256(price) * 1e10 */\n      swap3\n      pop\n      pop\n      pop\n        /* \"PriceConverter.sol\":200:597  function getPrice() internal view returns (uint256){... */\n      swap1\n      jump\t// out\n    tag_45:\n      dup3\n      dup1\n      sload\n      dup3\n      dup3\n      sstore\n      swap1\n      0x00\n      mstore\n      keccak256(0x00, 0x20)\n      swap1\n      dup2\n      add\n      swap3\n      dup3\n      iszero\n      tag_84\n      jumpi\n      swap2\n      0x20\n      mul\n      dup3\n      add\n    tag_85:\n      dup3\n      dup2\n      gt\n      iszero\n      tag_86\n      jumpi\n      dup3\n      mload\n      dup3\n      exp(0x0100, 0x00)\n      dup2\n      sload\n      dup2\n      0xffffffffffffffffffffffffffffffffffffffff\n      mul\n      not\n      and\n      swap1\n      dup4\n      0xffffffffffffffffffffffffffffffffffffffff\n      and\n      mul\n      or\n      swap1\n      sstore\n      pop\n      swap2\n      0x20\n      add\n      swap2\n      swap1\n      0x01\n      add\n      swap1\n      jump(tag_85)\n    tag_86:\n    tag_84:\n      pop\n      swap1\n      pop\n      tag_87\n      swap2\n      swap1\n      tag_88\n      jump\t// in\n    tag_87:\n      pop\n      swap1\n      jump\t// out\n    tag_88:\n    tag_89:\n      dup1\n      dup3\n      gt\n      iszero\n      tag_90\n      jumpi\n      0x00\n      dup2\n      0x00\n      swap1\n      sstore\n      pop\n      0x01\n      add\n      jump(tag_89)\n    tag_90:\n      pop\n      swap1\n      jump\t// out\n        /* \"#utility.yul\":7:84   */\n    tag_91:\n        /* \"#utility.yul\":44:51   */\n      0x00\n        /* \"#utility.yul\":73:78   */\n      dup2\n        /* \"#utility.yul\":62:78   */\n      swap1\n      pop\n        /* \"#utility.yul\":7:84   */\n      swap2\n      swap1\n      pop\n      jump\t// out\n        /* \"#utility.yul\":90:208   */\n    tag_92:\n        /* \"#utility.yul\":177:201   */\n      tag_125\n        /* \"#utility.yul\":195:200   */\n      dup2\n        /* \"#utility.yul\":177:201   */\n      tag_91\n      jump\t// in\n    tag_125:\n        /* \"#utility.yul\":172:175   */\n      dup3\n        /* \"#utility.yul\":165:202   */\n      mstore\n        /* \"#utility.yul\":90:208   */\n      pop\n      pop\n      jump\t// out\n        /* \"#utility.yul\":214:436   */\n    tag_11:\n        /* \"#utility.yul\":307:311   */\n      0x00\n        /* \"#utility.yul\":345:347   */\n      0x20\n        /* \"#utility.yul\":334:343   */\n      dup3\n        /* \"#utility.yul\":330:348   */\n      add\n        /* \"#utility.yul\":322:348   */\n      swap1\n      pop\n        /* \"#utility.yul\":358:429   */\n      tag_127\n        /* \"#utility.yul\":426:427   */\n      0x00\n        /* \"#utility.yul\":415:424   */\n      dup4\n        /* \"#utility.yul\":411:428   */\n      add\n        /* \"#utility.yul\":402:408   */\n      dup5\n        /* \"#utility.yul\":358:429   */\n      tag_92\n      jump\t// in\n    tag_127:\n        /* \"#utility.yul\":214:436   */\n      swap3\n      swap2\n      pop\n      pop\n      jump\t// out\n        /* \"#utility.yul\":523:640   */\n    tag_94:\n        /* \"#utility.yul\":632:633   */\n      0x00\n        /* \"#utility.yul\":629:630   */\n      dup1\n        /* \"#utility.yul\":622:634   */\n      revert\n        /* \"#utility.yul\":769:895   */\n    tag_96:\n        /* \"#utility.yul\":806:813   */\n      0x00\n        /* \"#utility.yul\":846:888   */\n      0xffffffffffffffffffffffffffffffffffffffff\n        /* \"#utility.yul\":839:844   */\n      dup3\n        /* \"#utility.yul\":835:889   */\n      and\n        /* \"#utility.yul\":824:889   */\n      swap1\n      pop\n        /* \"#utility.yul\":769:895   */\n      swap2\n      swap1\n      pop\n      jump\t// out\n        /* \"#utility.yul\":901:997   */\n    tag_97:\n        /* \"#utility.yul\":938:945   */\n      0x00\n        /* \"#utility.yul\":967:991   */\n      tag_133\n        /* \"#utility.yul\":985:990   */\n      dup3\n        /* \"#utility.yul\":967:991   */\n      tag_96\n      jump\t// in\n    tag_133:\n        /* \"#utility.yul\":956:991   */\n      swap1\n      pop\n        /* \"#utility.yul\":901:997   */\n      swap2\n      swap1\n      pop\n      jump\t// out\n        /* \"#utility.yul\":1003:1125   */\n    tag_98:\n        /* \"#utility.yul\":1076:1100   */\n      tag_135\n        /* \"#utility.yul\":1094:1099   */\n      dup2\n        /* \"#utility.yul\":1076:1100   */\n      tag_97\n      jump\t// in\n    tag_135:\n        /* \"#utility.yul\":1069:1074   */\n      dup2\n        /* \"#utility.yul\":1066:1101   */\n      eq\n        /* \"#utility.yul\":1056:1119   */\n      tag_136\n      jumpi\n        /* \"#utility.yul\":1115:1116   */\n      0x00\n        /* \"#utility.yul\":1112:1113   */\n      dup1\n        /* \"#utility.yul\":1105:1117   */\n      revert\n        /* \"#utility.yul\":1056:1119   */\n    tag_136:\n        /* \"#utility.yul\":1003:1125   */\n      pop\n      jump\t// out\n        /* \"#utility.yul\":1131:1270   */\n    tag_99:\n        /* \"#utility.yul\":1177:1182   */\n      0x00\n        /* \"#utility.yul\":1215:1221   */\n      dup2\n        /* \"#utility.yul\":1202:1222   */\n      calldataload\n        /* \"#utility.yul\":1193:1222   */\n      swap1\n      pop\n        /* \"#utility.yul\":1231:1264   */\n      tag_138\n        /* \"#utility.yul\":1258:1263   */\n      dup2\n        /* \"#utility.yul\":1231:1264   */\n      tag_98\n      jump\t// in\n    tag_138:\n        /* \"#utility.yul\":1131:1270   */\n      swap3\n      swap2\n      pop\n      pop\n      jump\t// out\n        /* \"#utility.yul\":1276:1605   */\n    tag_18:\n        /* \"#utility.yul\":1335:1341   */\n      0x00\n        /* \"#utility.yul\":1384:1386   */\n      0x20\n        /* \"#utility.yul\":1372:1381   */\n      dup3\n        /* \"#utility.yul\":1363:1370   */\n      dup5\n        /* \"#utility.yul\":1359:1382   */\n      sub\n        /* \"#utility.yul\":1355:1387   */\n      slt\n        /* \"#utility.yul\":1352:1471   */\n      iszero\n      tag_140\n      jumpi\n        /* \"#utility.yul\":1390:1469   */\n      tag_141\n      tag_94\n      jump\t// in\n    tag_141:\n        /* \"#utility.yul\":1352:1471   */\n    tag_140:\n        /* \"#utility.yul\":1510:1511   */\n      0x00\n        /* \"#utility.yul\":1535:1588   */\n      tag_142\n        /* \"#utility.yul\":1580:1587   */\n      dup5\n        /* \"#utility.yul\":1571:1577   */\n      dup3\n        /* \"#utility.yul\":1560:1569   */\n      dup6\n        /* \"#utility.yul\":1556:1578   */\n      add\n        /* \"#utility.yul\":1535:1588   */\n      tag_99\n      jump\t// in\n    tag_142:\n        /* \"#utility.yul\":1525:1588   */\n      swap2\n      pop\n        /* \"#utility.yul\":1481:1598   */\n      pop\n        /* \"#utility.yul\":1276:1605   */\n      swap3\n      swap2\n      pop\n      pop\n      jump\t// out\n        /* \"#utility.yul\":1611:1733   */\n    tag_100:\n        /* \"#utility.yul\":1684:1708   */\n      tag_144\n        /* \"#utility.yul\":1702:1707   */\n      dup2\n        /* \"#utility.yul\":1684:1708   */\n      tag_91\n      jump\t// in\n    tag_144:\n        /* \"#utility.yul\":1677:1682   */\n      dup2\n        /* \"#utility.yul\":1674:1709   */\n      eq\n        /* \"#utility.yul\":1664:1727   */\n      tag_145\n      jumpi\n        /* \"#utility.yul\":1723:1724   */\n      0x00\n        /* \"#utility.yul\":1720:1721   */\n      dup1\n        /* \"#utility.yul\":1713:1725   */\n      revert\n        /* \"#utility.yul\":1664:1727   */\n    tag_145:\n        /* \"#utility.yul\":1611:1733   */\n      pop\n      jump\t// out\n        /* \"#utility.yul\":1739:1878   */\n    tag_101:\n        /* \"#utility.yul\":1785:1790   */\n      0x00\n        /* \"#utility.yul\":1823:1829   */\n      dup2\n        /* \"#utility.yul\":1810:1830   */\n      calldataload\n        /* \"#utility.yul\":1801:1830   */\n      swap1\n      pop\n        /* \"#utility.yul\":1839:1872   */\n      tag_147\n        /* \"#utility.yul\":1866:1871   */\n      dup2\n        /* \"#utility.yul\":1839:1872   */\n      tag_100\n      jump\t// in\n    tag_147:\n        /* \"#utility.yul\":1739:1878   */\n      swap3\n      swap2\n      pop\n      pop\n      jump\t// out\n        /* \"#utility.yul\":1884:2213   */\n    tag_26:\n        /* \"#utility.yul\":1943:1949   */\n      0x00\n        /* \"#utility.yul\":1992:1994   */\n      0x20\n        /* \"#utility.yul\":1980:1989   */\n      dup3\n        /* \"#utility.yul\":1971:1978   */\n      dup5\n        /* \"#utility.yul\":1967:1990   */\n      sub\n        /* \"#utility.yul\":1963:1995   */\n      slt\n        /* \"#utility.yul\":1960:2079   */\n      iszero\n      tag_149\n      jumpi\n        /* \"#utility.yul\":1998:2077   */\n      tag_150\n      tag_94\n      jump\t// in\n    tag_150:\n        /* \"#utility.yul\":1960:2079   */\n    tag_149:\n        /* \"#utility.yul\":2118:2119   */\n      0x00\n        /* \"#utility.yul\":2143:2196   */\n      tag_151\n        /* \"#utility.yul\":2188:2195   */\n      dup5\n        /* \"#utility.yul\":2179:2185   */\n      dup3\n        /* \"#utility.yul\":2168:2177   */\n      dup6\n        /* \"#utility.yul\":2164:2186   */\n      add\n        /* \"#utility.yul\":2143:2196   */\n      tag_101\n      jump\t// in\n    tag_151:\n        /* \"#utility.yul\":2133:2196   */\n      swap2\n      pop\n        /* \"#utility.yul\":2089:2206   */\n      pop\n        /* \"#utility.yul\":1884:2213   */\n      swap3\n      swap2\n      pop\n      pop\n      jump\t// out\n        /* \"#utility.yul\":2219:2337   */\n    tag_102:\n        /* \"#utility.yul\":2306:2330   */\n      tag_153\n        /* \"#utility.yul\":2324:2329   */\n      dup2\n        /* \"#utility.yul\":2306:2330   */\n      tag_97\n      jump\t// in\n    tag_153:\n        /* \"#utility.yul\":2301:2304   */\n      dup3\n        /* \"#utility.yul\":2294:2331   */\n      mstore\n        /* \"#utility.yul\":2219:2337   */\n      pop\n      pop\n      jump\t// out\n        /* \"#utility.yul\":2343:2565   */\n    tag_29:\n        /* \"#utility.yul\":2436:2440   */\n      0x00\n        /* \"#utility.yul\":2474:2476   */\n      0x20\n        /* \"#utility.yul\":2463:2472   */\n      dup3\n        /* \"#utility.yul\":2459:2477   */\n      add\n        /* \"#utility.yul\":2451:2477   */\n      swap1\n      pop\n        /* \"#utility.yul\":2487:2558   */\n      tag_155\n        /* \"#utility.yul\":2555:2556   */\n      0x00\n        /* \"#utility.yul\":2544:2553   */\n      dup4\n        /* \"#utility.yul\":2540:2557   */\n      add\n        /* \"#utility.yul\":2531:2537   */\n      dup5\n        /* \"#utility.yul\":2487:2558   */\n      tag_102\n      jump\t// in\n    tag_155:\n        /* \"#utility.yul\":2343:2565   */\n      swap3\n      swap2\n      pop\n      pop\n      jump\t// out\n        /* \"#utility.yul\":2571:2751   */\n    tag_36:\n        /* \"#utility.yul\":2619:2696   */\n      0x4e487b7100000000000000000000000000000000000000000000000000000000\n        /* \"#utility.yul\":2616:2617   */\n      0x00\n        /* \"#utility.yul\":2609:2697   */\n      mstore\n        /* \"#utility.yul\":2716:2720   */\n      0x32\n        /* \"#utility.yul\":2713:2714   */\n      0x04\n        /* \"#utility.yul\":2706:2721   */\n      mstore\n        /* \"#utility.yul\":2740:2744   */\n      0x24\n        /* \"#utility.yul\":2737:2738   */\n      0x00\n        /* \"#utility.yul\":2730:2745   */\n      revert\n        /* \"#utility.yul\":2757:2937   */\n    tag_103:\n        /* \"#utility.yul\":2805:2882   */\n      0x4e487b7100000000000000000000000000000000000000000000000000000000\n        /* \"#utility.yul\":2802:2803   */\n      0x00\n        /* \"#utility.yul\":2795:2883   */\n      mstore\n        /* \"#utility.yul\":2902:2906   */\n      0x11\n        /* \"#utility.yul\":2899:2900   */\n      0x04\n        /* \"#utility.yul\":2892:2907   */\n      mstore\n        /* \"#utility.yul\":2926:2930   */\n      0x24\n        /* \"#utility.yul\":2923:2924   */\n      0x00\n        /* \"#utility.yul\":2916:2931   */\n      revert\n        /* \"#utility.yul\":2943:3176   */\n    tag_39:\n        /* \"#utility.yul\":2982:2985   */\n      0x00\n        /* \"#utility.yul\":3005:3029   */\n      tag_159\n        /* \"#utility.yul\":3023:3028   */\n      dup3\n        /* \"#utility.yul\":3005:3029   */\n      tag_91\n      jump\t// in\n    tag_159:\n        /* \"#utility.yul\":2996:3029   */\n      swap2\n      pop\n        /* \"#utility.yul\":3051:3117   */\n      0xffffffffffffffffffffffffffffffffffffffffffffffffffffffffffffffff\n        /* \"#utility.yul\":3044:3049   */\n      dup3\n        /* \"#utility.yul\":3041:3118   */\n      sub\n        /* \"#utility.yul\":3038:3141   */\n      tag_160\n      jumpi\n        /* \"#utility.yul\":3121:3139   */\n      tag_161\n      tag_103\n      jump\t// in\n    tag_161:\n        /* \"#utility.yul\":3038:3141   */\n    tag_160:\n        /* \"#utility.yul\":3168:3169   */\n      0x01\n        /* \"#utility.yul\":3161:3166   */\n      dup3\n        /* \"#utility.yul\":3157:3170   */\n      add\n        /* \"#utility.yul\":3150:3170   */\n      swap1\n      pop\n        /* \"#utility.yul\":2943:3176   */\n      swap2\n      swap1\n      pop\n      jump\t// out\n        /* \"#utility.yul\":3182:3362   */\n    tag_42:\n        /* \"#utility.yul\":3230:3307   */\n      0x4e487b7100000000000000000000000000000000000000000000000000000000\n        /* \"#utility.yul\":3227:3228   */\n      0x00\n        /* \"#utility.yul\":3220:3308   */\n      mstore\n        /* \"#utility.yul\":3327:3331   */\n      0x41\n        /* \"#utility.yul\":3324:3325   */\n      0x04\n        /* \"#utility.yul\":3317:3332   */\n      mstore\n        /* \"#utility.yul\":3351:3355   */\n      0x24\n        /* \"#utility.yul\":3348:3349   */\n      0x00\n        /* \"#utility.yul\":3341:3356   */\n      revert\n        /* \"#utility.yul\":3368:3537   */\n    tag_104:\n        /* \"#utility.yul\":3452:3463   */\n      0x00\n        /* \"#utility.yul\":3486:3492   */\n      dup3\n        /* \"#utility.yul\":3481:3484   */\n      dup3\n        /* \"#utility.yul\":3474:3493   */\n      mstore\n        /* \"#utility.yul\":3526:3530   */\n      0x20\n        /* \"#utility.yul\":3521:3524   */\n      dup3\n        /* \"#utility.yul\":3517:3531   */\n      add\n        /* \"#utility.yul\":3502:3531   */\n      swap1\n      pop\n        /* \"#utility.yul\":3368:3537   */\n      swap3\n      swap2\n      pop\n      pop\n      jump\t// out\n        /* \"#utility.yul\":3543:3704   */\n    tag_105:\n        /* \"#utility.yul\":3683:3696   */\n      0x53656e64206661696c6564000000000000000000000000000000000000000000\n        /* \"#utility.yul\":3679:3680   */\n      0x00\n        /* \"#utility.yul\":3671:3677   */\n      dup3\n        /* \"#utility.yul\":3667:3681   */\n      add\n        /* \"#utility.yul\":3660:3697   */\n      mstore\n        /* \"#utility.yul\":3543:3704   */\n      pop\n      jump\t// out\n        /* \"#utility.yul\":3710:4076   */\n    tag_106:\n        /* \"#utility.yul\":3852:3855   */\n      0x00\n        /* \"#utility.yul\":3873:3940   */\n      tag_166\n        /* \"#utility.yul\":3937:3939   */\n      0x0b\n        /* \"#utility.yul\":3932:3935   */\n      dup4\n        /* \"#utility.yul\":3873:3940   */\n      tag_104\n      jump\t// in\n    tag_166:\n        /* \"#utility.yul\":3866:3940   */\n      swap2\n      pop\n        /* \"#utility.yul\":3949:4042   */\n      tag_167\n        /* \"#utility.yul\":4038:4041   */\n      dup3\n        /* \"#utility.yul\":3949:4042   */\n      tag_105\n      jump\t// in\n    tag_167:\n        /* \"#utility.yul\":4067:4069   */\n      0x20\n        /* \"#utility.yul\":4062:4065   */\n      dup3\n        /* \"#utility.yul\":4058:4070   */\n      add\n        /* \"#utility.yul\":4051:4070   */\n      swap1\n      pop\n        /* \"#utility.yul\":3710:4076   */\n      swap2\n      swap1\n      pop\n      jump\t// out\n        /* \"#utility.yul\":4082:4501   */\n    tag_51:\n        /* \"#utility.yul\":4248:4252   */\n      0x00\n        /* \"#utility.yul\":4286:4288   */\n      0x20\n        /* \"#utility.yul\":4275:4284   */\n      dup3\n        /* \"#utility.yul\":4271:4289   */\n      add\n        /* \"#utility.yul\":4263:4289   */\n      swap1\n      pop\n        /* \"#utility.yul\":4335:4344   */\n      dup2\n        /* \"#utility.yul\":4329:4333   */\n      dup2\n        /* \"#utility.yul\":4325:4345   */\n      sub\n        /* \"#utility.yul\":4321:4322   */\n      0x00\n        /* \"#utility.yul\":4310:4319   */\n      dup4\n        /* \"#utility.yul\":4306:4323   */\n      add\n        /* \"#utility.yul\":4299:4346   */\n      mstore\n        /* \"#utility.yul\":4363:4494   */\n      tag_169\n        /* \"#utility.yul\":4489:4493   */\n      dup2\n        /* \"#utility.yul\":4363:4494   */\n      tag_106\n      jump\t// in\n    tag_169:\n        /* \"#utility.yul\":4355:4494   */\n      swap1\n      pop\n        /* \"#utility.yul\":4082:4501   */\n      swap2\n      swap1\n      pop\n      jump\t// out\n        /* \"#utility.yul\":4507:4654   */\n    tag_107:\n        /* \"#utility.yul\":4608:4619   */\n      0x00\n        /* \"#utility.yul\":4645:4648   */\n      dup2\n        /* \"#utility.yul\":4630:4648   */\n      swap1\n      pop\n        /* \"#utility.yul\":4507:4654   */\n      swap3\n      swap2\n      pop\n      pop\n      jump\t// out\n        /* \"#utility.yul\":4660:4774   */\n    tag_108:\n      pop\n      jump\t// out\n        /* \"#utility.yul\":4780:5178   */\n    tag_109:\n        /* \"#utility.yul\":4939:4942   */\n      0x00\n        /* \"#utility.yul\":4960:5043   */\n      tag_173\n        /* \"#utility.yul\":5041:5042   */\n      0x00\n        /* \"#utility.yul\":5036:5039   */\n      dup4\n        /* \"#utility.yul\":4960:5043   */\n      tag_107\n      jump\t// in\n    tag_173:\n        /* \"#utility.yul\":4953:5043   */\n      swap2\n      pop\n        /* \"#utility.yul\":5052:5145   */\n      tag_174\n        /* \"#utility.yul\":5141:5144   */\n      dup3\n        /* \"#utility.yul\":5052:5145   */\n      tag_108\n      jump\t// in\n    tag_174:\n        /* \"#utility.yul\":5170:5171   */\n      0x00\n        /* \"#utility.yul\":5165:5168   */\n      dup3\n        /* \"#utility.yul\":5161:5172   */\n      add\n        /* \"#utility.yul\":5154:5172   */\n      swap1\n      pop\n        /* \"#utility.yul\":4780:5178   */\n      swap2\n      swap1\n      pop\n      jump\t// out\n        /* \"#utility.yul\":5184:5563   */\n    tag_53:\n        /* \"#utility.yul\":5368:5371   */\n      0x00\n        /* \"#utility.yul\":5390:5537   */\n      tag_176\n        /* \"#utility.yul\":5533:5536   */\n      dup3\n        /* \"#utility.yul\":5390:5537   */\n      tag_109\n      jump\t// in\n    tag_176:\n        /* \"#utility.yul\":5383:5537   */\n      swap2\n      pop\n        /* \"#utility.yul\":5554:5557   */\n      dup2\n        /* \"#utility.yul\":5547:5557   */\n      swap1\n      pop\n        /* \"#utility.yul\":5184:5563   */\n      swap2\n      swap1\n      pop\n      jump\t// out\n        /* \"#utility.yul\":5569:5730   */\n    tag_110:\n        /* \"#utility.yul\":5709:5722   */\n      0x43616c6c206661696c6564000000000000000000000000000000000000000000\n        /* \"#utility.yul\":5705:5706   */\n      0x00\n        /* \"#utility.yul\":5697:5703   */\n      dup3\n        /* \"#utility.yul\":5693:5707   */\n      add\n        /* \"#utility.yul\":5686:5723   */\n      mstore\n        /* \"#utility.yul\":5569:5730   */\n      pop\n      jump\t// out\n        /* \"#utility.yul\":5736:6102   */\n    tag_111:\n        /* \"#utility.yul\":5878:5881   */\n      0x00\n        /* \"#utility.yul\":5899:5966   */\n      tag_179\n        /* \"#utility.yul\":5963:5965   */\n      0x0b\n        /* \"#utility.yul\":5958:5961   */\n      dup4\n        /* \"#utility.yul\":5899:5966   */\n      tag_104\n      jump\t// in\n    tag_179:\n        /* \"#utility.yul\":5892:5966   */\n      swap2\n      pop\n        /* \"#utility.yul\":5975:6068   */\n      tag_180\n        /* \"#utility.yul\":6064:6067   */\n      dup3\n        /* \"#utility.yul\":5975:6068   */\n      tag_110\n      jump\t// in\n    tag_180:\n        /* \"#utility.yul\":6093:6095   */\n      0x20\n        /* \"#utility.yul\":6088:6091   */\n      dup3\n        /* \"#utility.yul\":6084:6096   */\n      add\n        /* \"#utility.yul\":6077:6096   */\n      swap1\n      pop\n        /* \"#utility.yul\":5736:6102   */\n      swap2\n      swap1\n      pop\n      jump\t// out\n        /* \"#utility.yul\":6108:6527   */\n    tag_59:\n        /* \"#utility.yul\":6274:6278   */\n      0x00\n        /* \"#utility.yul\":6312:6314   */\n      0x20\n        /* \"#utility.yul\":6301:6310   */\n      dup3\n        /* \"#utility.yul\":6297:6315   */\n      add\n        /* \"#utility.yul\":6289:6315   */\n      swap1\n      pop\n        /* \"#utility.yul\":6361:6370   */\n      dup2\n        /* \"#utility.yul\":6355:6359   */\n      dup2\n        /* \"#utility.yul\":6351:6371   */\n      sub\n        /* \"#utility.yul\":6347:6348   */\n      0x00\n        /* \"#utility.yul\":6336:6345   */\n      dup4\n        /* \"#utility.yul\":6332:6349   */\n      add\n        /* \"#utility.yul\":6325:6372   */\n      mstore\n        /* \"#utility.yul\":6389:6520   */\n      tag_182\n        /* \"#utility.yul\":6515:6519   */\n      dup2\n        /* \"#utility.yul\":6389:6520   */\n      tag_111\n      jump\t// in\n    tag_182:\n        /* \"#utility.yul\":6381:6520   */\n      swap1\n      pop\n        /* \"#utility.yul\":6108:6527   */\n      swap2\n      swap1\n      pop\n      jump\t// out\n        /* \"#utility.yul\":6533:6707   */\n    tag_112:\n        /* \"#utility.yul\":6673:6699   */\n      0x6469646e27742073656e6420656e6f7567682065746865720000000000000000\n        /* \"#utility.yul\":6669:6670   */\n      0x00\n        /* \"#utility.yul\":6661:6667   */\n      dup3\n        /* \"#utility.yul\":6657:6671   */\n      add\n        /* \"#utility.yul\":6650:6700   */\n      mstore\n        /* \"#utility.yul\":6533:6707   */\n      pop\n      jump\t// out\n        /* \"#utility.yul\":6713:7079   */\n    tag_113:\n        /* \"#utility.yul\":6855:6858   */\n      0x00\n        /* \"#utility.yul\":6876:6943   */\n      tag_185\n        /* \"#utility.yul\":6940:6942   */\n      0x18\n        /* \"#utility.yul\":6935:6938   */\n      dup4\n        /* \"#utility.yul\":6876:6943   */\n      tag_104\n      jump\t// in\n    tag_185:\n        /* \"#utility.yul\":6869:6943   */\n      swap2\n      pop\n        /* \"#utility.yul\":6952:7045   */\n      tag_186\n        /* \"#utility.yul\":7041:7044   */\n      dup3\n        /* \"#utility.yul\":6952:7045   */\n      tag_112\n      jump\t// in\n    tag_186:\n        /* \"#utility.yul\":7070:7072   */\n      0x20\n        /* \"#utility.yul\":7065:7068   */\n      dup3\n        /* \"#utility.yul\":7061:7073   */\n      add\n        /* \"#utility.yul\":7054:7073   */\n      swap1\n      pop\n        /* \"#utility.yul\":6713:7079   */\n      swap2\n      swap1\n      pop\n      jump\t// out\n        /* \"#utility.yul\":7085:7504   */\n    tag_65:\n        /* \"#utility.yul\":7251:7255   */\n      0x00\n        /* \"#utility.yul\":7289:7291   */\n      0x20\n        /* \"#utility.yul\":7278:7287   */\n      dup3\n        /* \"#utility.yul\":7274:7292   */\n      add\n        /* \"#utility.yul\":7266:7292   */\n      swap1\n      pop\n        /* \"#utility.yul\":7338:7347   */\n      dup2\n        /* \"#utility.yul\":7332:7336   */\n      dup2\n        /* \"#utility.yul\":7328:7348   */\n      sub\n        /* \"#utility.yul\":7324:7325   */\n      0x00\n        /* \"#utility.yul\":7313:7322   */\n      dup4\n        /* \"#utility.yul\":7309:7326   */\n      add\n        /* \"#utility.yul\":7302:7349   */\n      mstore\n        /* \"#utility.yul\":7366:7497   */\n      tag_188\n        /* \"#utility.yul\":7492:7496   */\n      dup2\n        /* \"#utility.yul\":7366:7497   */\n      tag_113\n      jump\t// in\n    tag_188:\n        /* \"#utility.yul\":7358:7497   */\n      swap1\n      pop\n        /* \"#utility.yul\":7085:7504   */\n      swap2\n      swap1\n      pop\n      jump\t// out\n        /* \"#utility.yul\":7510:7701   */\n    tag_68:\n        /* \"#utility.yul\":7550:7553   */\n      0x00\n        /* \"#utility.yul\":7569:7589   */\n      tag_190\n        /* \"#utility.yul\":7587:7588   */\n      dup3\n        /* \"#utility.yul\":7569:7589   */\n      tag_91\n      jump\t// in\n    tag_190:\n        /* \"#utility.yul\":7564:7589   */\n      swap2\n      pop\n        /* \"#utility.yul\":7603:7623   */\n      tag_191\n        /* \"#utility.yul\":7621:7622   */\n      dup4\n        /* \"#utility.yul\":7603:7623   */\n      tag_91\n      jump\t// in\n    tag_191:\n        /* \"#utility.yul\":7598:7623   */\n      swap3\n      pop\n        /* \"#utility.yul\":7646:7647   */\n      dup3\n        /* \"#utility.yul\":7643:7644   */\n      dup3\n        /* \"#utility.yul\":7639:7648   */\n      add\n        /* \"#utility.yul\":7632:7648   */\n      swap1\n      pop\n        /* \"#utility.yul\":7667:7670   */\n      dup1\n        /* \"#utility.yul\":7664:7665   */\n      dup3\n        /* \"#utility.yul\":7661:7671   */\n      gt\n        /* \"#utility.yul\":7658:7694   */\n      iszero\n      tag_192\n      jumpi\n        /* \"#utility.yul\":7674:7692   */\n      tag_193\n      tag_103\n      jump\t// in\n    tag_193:\n        /* \"#utility.yul\":7658:7694   */\n    tag_192:\n        /* \"#utility.yul\":7510:7701   */\n      swap3\n      swap2\n      pop\n      pop\n      jump\t// out\n        /* \"#utility.yul\":7707:8117   */\n    tag_75:\n        /* \"#utility.yul\":7747:7754   */\n      0x00\n        /* \"#utility.yul\":7770:7790   */\n      tag_195\n        /* \"#utility.yul\":7788:7789   */\n      dup3\n        /* \"#utility.yul\":7770:7790   */\n      tag_91\n      jump\t// in\n    tag_195:\n        /* \"#utility.yul\":7765:7790   */\n      swap2\n      pop\n        /* \"#utility.yul\":7804:7824   */\n      tag_196\n        /* \"#utility.yul\":7822:7823   */\n      dup4\n        /* \"#utility.yul\":7804:7824   */\n      tag_91\n      jump\t// in\n    tag_196:\n        /* \"#utility.yul\":7799:7824   */\n      swap3\n      pop\n        /* \"#utility.yul\":7859:7860   */\n      dup3\n        /* \"#utility.yul\":7856:7857   */\n      dup3\n        /* \"#utility.yul\":7852:7861   */\n      mul\n        /* \"#utility.yul\":7881:7911   */\n      tag_197\n        /* \"#utility.yul\":7899:7910   */\n      dup2\n        /* \"#utility.yul\":7881:7911   */\n      tag_91\n      jump\t// in\n    tag_197:\n        /* \"#utility.yul\":7870:7911   */\n      swap2\n      pop\n        /* \"#utility.yul\":8060:8061   */\n      dup3\n        /* \"#utility.yul\":8051:8058   */\n      dup3\n        /* \"#utility.yul\":8047:8062   */\n      div\n        /* \"#utility.yul\":8044:8045   */\n      dup5\n        /* \"#utility.yul\":8041:8063   */\n      eq\n        /* \"#utility.yul\":8021:8022   */\n      dup4\n        /* \"#utility.yul\":8014:8023   */\n      iszero\n        /* \"#utility.yul\":7994:8077   */\n      or\n        /* \"#utility.yul\":7971:8110   */\n      tag_198\n      jumpi\n        /* \"#utility.yul\":8090:8108   */\n      tag_199\n      tag_103\n      jump\t// in\n    tag_199:\n        /* \"#utility.yul\":7971:8110   */\n    tag_198:\n        /* \"#utility.yul\":7755:8117   */\n      pop\n        /* \"#utility.yul\":7707:8117   */\n      swap3\n      swap2\n      pop\n      pop\n      jump\t// out\n        /* \"#utility.yul\":8123:8303   */\n    tag_114:\n        /* \"#utility.yul\":8171:8248   */\n      0x4e487b7100000000000000000000000000000000000000000000000000000000\n        /* \"#utility.yul\":8168:8169   */\n      0x00\n        /* \"#utility.yul\":8161:8249   */\n      mstore\n        /* \"#utility.yul\":8268:8272   */\n      0x12\n        /* \"#utility.yul\":8265:8266   */\n      0x04\n        /* \"#utility.yul\":8258:8273   */\n      mstore\n        /* \"#utility.yul\":8292:8296   */\n      0x24\n        /* \"#utility.yul\":8289:8290   */\n      0x00\n        /* \"#utility.yul\":8282:8297   */\n      revert\n        /* \"#utility.yul\":8309:8494   */\n    tag_77:\n        /* \"#utility.yul\":8349:8350   */\n      0x00\n        /* \"#utility.yul\":8366:8386   */\n      tag_202\n        /* \"#utility.yul\":8384:8385   */\n      dup3\n        /* \"#utility.yul\":8366:8386   */\n      tag_91\n      jump\t// in\n    tag_202:\n        /* \"#utility.yul\":8361:8386   */\n      swap2\n      pop\n        /* \"#utility.yul\":8400:8420   */\n      tag_203\n        /* \"#utility.yul\":8418:8419   */\n      dup4\n        /* \"#utility.yul\":8400:8420   */\n      tag_91\n      jump\t// in\n    tag_203:\n        /* \"#utility.yul\":8395:8420   */\n      swap3\n      pop\n        /* \"#utility.yul\":8439:8440   */\n      dup3\n        /* \"#utility.yul\":8429:8464   */\n      tag_204\n      jumpi\n        /* \"#utility.yul\":8444:8462   */\n      tag_205\n      tag_114\n      jump\t// in\n    tag_205:\n        /* \"#utility.yul\":8429:8464   */\n    tag_204:\n        /* \"#utility.yul\":8486:8487   */\n      dup3\n        /* \"#utility.yul\":8483:8484   */\n      dup3\n        /* \"#utility.yul\":8479:8488   */\n      div\n        /* \"#utility.yul\":8474:8488   */\n      swap1\n      pop\n        /* \"#utility.yul\":8309:8494   */\n      swap3\n      swap2\n      pop\n      pop\n      jump\t// out\n        /* \"#utility.yul\":8500:8605   */\n    tag_115:\n        /* \"#utility.yul\":8536:8543   */\n      0x00\n        /* \"#utility.yul\":8576:8598   */\n      0xffffffffffffffffffff\n        /* \"#utility.yul\":8569:8574   */\n      dup3\n        /* \"#utility.yul\":8565:8599   */\n      and\n        /* \"#utility.yul\":8554:8599   */\n      swap1\n      pop\n        /* \"#utility.yul\":8500:8605   */\n      swap2\n      swap1\n      pop\n      jump\t// out\n        /* \"#utility.yul\":8611:8731   */\n    tag_116:\n        /* \"#utility.yul\":8683:8706   */\n      tag_208\n        /* \"#utility.yul\":8700:8705   */\n      dup2\n        /* \"#utility.yul\":8683:8706   */\n      tag_115\n      jump\t// in\n    tag_208:\n        /* \"#utility.yul\":8676:8681   */\n      dup2\n        /* \"#utility.yul\":8673:8707   */\n      eq\n        /* \"#utility.yul\":8663:8725   */\n      tag_209\n      jumpi\n        /* \"#utility.yul\":8721:8722   */\n      0x00\n        /* \"#utility.yul\":8718:8719   */\n      dup1\n        /* \"#utility.yul\":8711:8723   */\n      revert\n        /* \"#utility.yul\":8663:8725   */\n    tag_209:\n        /* \"#utility.yul\":8611:8731   */\n      pop\n      jump\t// out\n        /* \"#utility.yul\":8737:8878   */\n    tag_117:\n        /* \"#utility.yul\":8793:8798   */\n      0x00\n        /* \"#utility.yul\":8824:8830   */\n      dup2\n        /* \"#utility.yul\":8818:8831   */\n      mload\n        /* \"#utility.yul\":8809:8831   */\n      swap1\n      pop\n        /* \"#utility.yul\":8840:8872   */\n      tag_211\n        /* \"#utility.yul\":8866:8871   */\n      dup2\n        /* \"#utility.yul\":8840:8872   */\n      tag_116\n      jump\t// in\n    tag_211:\n        /* \"#utility.yul\":8737:8878   */\n      swap3\n      swap2\n      pop\n      pop\n      jump\t// out\n        /* \"#utility.yul\":8884:8960   */\n    tag_118:\n        /* \"#utility.yul\":8920:8927   */\n      0x00\n        /* \"#utility.yul\":8949:8954   */\n      dup2\n        /* \"#utility.yul\":8938:8954   */\n      swap1\n      pop\n        /* \"#utility.yul\":8884:8960   */\n      swap2\n      swap1\n      pop\n      jump\t// out\n        /* \"#utility.yul\":8966:9086   */\n    tag_119:\n        /* \"#utility.yul\":9038:9061   */\n      tag_214\n        /* \"#utility.yul\":9055:9060   */\n      dup2\n        /* \"#utility.yul\":9038:9061   */\n      tag_118\n      jump\t// in\n    tag_214:\n        /* \"#utility.yul\":9031:9036   */\n      dup2\n        /* \"#utility.yul\":9028:9062   */\n      eq\n        /* \"#utility.yul\":9018:9080   */\n      tag_215\n      jumpi\n        /* \"#utility.yul\":9076:9077   */\n      0x00\n        /* \"#utility.yul\":9073:9074   */\n      dup1\n        /* \"#utility.yul\":9066:9078   */\n      revert\n        /* \"#utility.yul\":9018:9080   */\n    tag_215:\n        /* \"#utility.yul\":8966:9086   */\n      pop\n      jump\t// out\n        /* \"#utility.yul\":9092:9233   */\n    tag_120:\n        /* \"#utility.yul\":9148:9153   */\n      0x00\n        /* \"#utility.yul\":9179:9185   */\n      dup2\n        /* \"#utility.yul\":9173:9186   */\n      mload\n        /* \"#utility.yul\":9164:9186   */\n      swap1\n      pop\n        /* \"#utility.yul\":9195:9227   */\n      tag_217\n        /* \"#utility.yul\":9221:9226   */\n      dup2\n        /* \"#utility.yul\":9195:9227   */\n      tag_119\n      jump\t// in\n    tag_217:\n        /* \"#utility.yul\":9092:9233   */\n      swap3\n      swap2\n      pop\n      pop\n      jump\t// out\n        /* \"#utility.yul\":9239:9382   */\n    tag_121:\n        /* \"#utility.yul\":9296:9301   */\n      0x00\n        /* \"#utility.yul\":9327:9333   */\n      dup2\n        /* \"#utility.yul\":9321:9334   */\n      mload\n        /* \"#utility.yul\":9312:9334   */\n      swap1\n      pop\n        /* \"#utility.yul\":9343:9376   */\n      tag_219\n        /* \"#utility.yul\":9370:9375   */\n      dup2\n        /* \"#utility.yul\":9343:9376   */\n      tag_100\n      jump\t// in\n    tag_219:\n        /* \"#utility.yul\":9239:9382   */\n      swap3\n      swap2\n      pop\n      pop\n      jump\t// out\n        /* \"#utility.yul\":9388:10359   */\n    tag_82:\n        /* \"#utility.yul\":9491:9497   */\n      0x00\n        /* \"#utility.yul\":9499:9505   */\n      dup1\n        /* \"#utility.yul\":9507:9513   */\n      0x00\n        /* \"#utility.yul\":9515:9521   */\n      dup1\n        /* \"#utility.yul\":9523:9529   */\n      0x00\n        /* \"#utility.yul\":9572:9575   */\n      0xa0\n        /* \"#utility.yul\":9560:9569   */\n      dup7\n        /* \"#utility.yul\":9551:9558   */\n      dup9\n        /* \"#utility.yul\":9547:9570   */\n      sub\n        /* \"#utility.yul\":9543:9576   */\n      slt\n        /* \"#utility.yul\":9540:9660   */\n      iszero\n      tag_221\n      jumpi\n        /* \"#utility.yul\":9579:9658   */\n      tag_222\n      tag_94\n      jump\t// in\n    tag_222:\n        /* \"#utility.yul\":9540:9660   */\n    tag_221:\n        /* \"#utility.yul\":9699:9700   */\n      0x00\n        /* \"#utility.yul\":9724:9787   */\n      tag_223\n        /* \"#utility.yul\":9779:9786   */\n      dup9\n        /* \"#utility.yul\":9770:9776   */\n      dup3\n        /* \"#utility.yul\":9759:9768   */\n      dup10\n        /* \"#utility.yul\":9755:9777   */\n      add\n        /* \"#utility.yul\":9724:9787   */\n      tag_117\n      jump\t// in\n    tag_223:\n        /* \"#utility.yul\":9714:9787   */\n      swap6\n      pop\n        /* \"#utility.yul\":9670:9797   */\n      pop\n        /* \"#utility.yul\":9836:9838   */\n      0x20\n        /* \"#utility.yul\":9862:9925   */\n      tag_224\n        /* \"#utility.yul\":9917:9924   */\n      dup9\n        /* \"#utility.yul\":9908:9914   */\n      dup3\n        /* \"#utility.yul\":9897:9906   */\n      dup10\n        /* \"#utility.yul\":9893:9915   */\n      add\n        /* \"#utility.yul\":9862:9925   */\n      tag_120\n      jump\t// in\n    tag_224:\n        /* \"#utility.yul\":9852:9925   */\n      swap5\n      pop\n        /* \"#utility.yul\":9807:9935   */\n      pop\n        /* \"#utility.yul\":9974:9976   */\n      0x40\n        /* \"#utility.yul\":10000:10064   */\n      tag_225\n        /* \"#utility.yul\":10056:10063   */\n      dup9\n        /* \"#utility.yul\":10047:10053   */\n      dup3\n        /* \"#utility.yul\":10036:10045   */\n      dup10\n        /* \"#utility.yul\":10032:10054   */\n      add\n        /* \"#utility.yul\":10000:10064   */\n      tag_121\n      jump\t// in\n    tag_225:\n        /* \"#utility.yul\":9990:10064   */\n      swap4\n      pop\n        /* \"#utility.yul\":9945:10074   */\n      pop\n        /* \"#utility.yul\":10113:10115   */\n      0x60\n        /* \"#utility.yul\":10139:10203   */\n      tag_226\n        /* \"#utility.yul\":10195:10202   */\n      dup9\n        /* \"#utility.yul\":10186:10192   */\n      dup3\n        /* \"#utility.yul\":10175:10184   */\n      dup10\n        /* \"#utility.yul\":10171:10193   */\n      add\n        /* \"#utility.yul\":10139:10203   */\n      tag_121\n      jump\t// in\n    tag_226:\n        /* \"#utility.yul\":10129:10203   */\n      swap3\n      pop\n        /* \"#utility.yul\":10084:10213   */\n      pop\n        /* \"#utility.yul\":10252:10255   */\n      0x80\n        /* \"#utility.yul\":10279:10342   */\n      tag_227\n        /* \"#utility.yul\":10334:10341   */\n      dup9\n        /* \"#utility.yul\":10325:10331   */\n      dup3\n        /* \"#utility.yul\":10314:10323   */\n      dup10\n        /* \"#utility.yul\":10310:10332   */\n      add\n        /* \"#utility.yul\":10279:10342   */\n      tag_117\n      jump\t// in\n    tag_227:\n        /* \"#utility.yul\":10269:10342   */\n      swap2\n      pop\n        /* \"#utility.yul\":10223:10352   */\n      pop\n        /* \"#utility.yul\":9388:10359   */\n      swap3\n      swap6\n      pop\n      swap3\n      swap6\n      swap1\n      swap4\n      pop\n      jump\t// out\n\n    auxdata: 0xa2646970667358221220413bd18f12e3fa4f312e8414e293ec943f5ebe764ded7963e6fe3be7b520cbca64736f6c63430008130033\n}\n",
				"bytecode": {
					"linkReferences": {},
					"object": "6080604052674563918244f40000600055610c4c8061001f6000396000f3fe60806040526004361061004a5760003560e01c8063098de8201461004f5780633ccfd60b1461007a5780633e47d6f314610091578063b60d4288146100ce578063dc0d3dff146100d8575b600080fd5b34801561005b57600080fd5b50610064610115565b604051610071919061069a565b60405180910390f35b34801561008657600080fd5b5061008f61011b565b005b34801561009d57600080fd5b506100b860048036038101906100b39190610718565b610398565b6040516100c5919061069a565b60405180910390f35b6100d66103b0565b005b3480156100e457600080fd5b506100ff60048036038101906100fa9190610771565b6104b8565b60405161010c91906107ad565b60405180910390f35b60005481565b60005b6001805490508110156101c757600060018281548110610141576101406107c8565b5b9060005260206000200160009054906101000a900473ffffffffffffffffffffffffffffffffffffffff1690506000600260008373ffffffffffffffffffffffffffffffffffffffff1673ffffffffffffffffffffffffffffffffffffffff168152602001908152602001600020819055505080806101bf90610826565b91505061011e565b50600067ffffffffffffffff8111156101e3576101e261086e565b5b6040519080825280602002602001820160405280156102115781602001602082028036833780820191505090505b50600190805190602001906102279291906105da565b503373ffffffffffffffffffffffffffffffffffffffff166108fc479081150290604051600060405180830381858888f1935050505015801561026e573d6000803e3d6000fd5b5060003373ffffffffffffffffffffffffffffffffffffffff166108fc479081150290604051600060405180830381858888f193505050509050806102e8576040517f08c379a00000000000000000000000000000000000000000000000000000000081526004016102df906108fa565b60405180910390fd5b60003373ffffffffffffffffffffffffffffffffffffffff164760405161030e9061094b565b60006040518083038185875af1925050503d806000811461034b576040519150601f19603f3d011682016040523d82523d6000602084013e610350565b606091505b5050905080610394576040517f08c379a000000000000000000000000000000000000000000000000000000000815260040161038b906109ac565b60405180910390fd5b5050565b60026020528060005260406000206000915090505481565b6000546103bc346104f7565b10156103fd576040517f08c379a00000000000000000000000000000000000000000000000000000000081526004016103f490610a18565b60405180910390fd5b6001339080600181540180825580915050600190039060005260206000200160009091909190916101000a81548173ffffffffffffffffffffffffffffffffffffffff021916908373ffffffffffffffffffffffffffffffffffffffff16021790555034600260003373ffffffffffffffffffffffffffffffffffffffff1673ffffffffffffffffffffffffffffffffffffffff16815260200190815260200160002060008282546104af9190610a38565b92505081905550565b600181815481106104c857600080fd5b906000526020600020016000915054906101000a900473ffffffffffffffffffffffffffffffffffffffff1681565b600080610502610531565b90506000670de0b6b3a7640000848361051b9190610a6c565b6105259190610add565b90508092505050919050565b600080731b44f3514812d835eb1bdb0acb33d3fa3351ee43905060008173ffffffffffffffffffffffffffffffffffffffff1663feaf968c6040518163ffffffff1660e01b815260040160a060405180830381865afa158015610598573d6000803e3d6000fd5b505050506040513d601f19601f820116820180604052508101906105bc9190610b9b565b5050509150506402540be400816105d39190610a6c565b9250505090565b828054828255906000526020600020908101928215610653579160200282015b828111156106525782518260006101000a81548173ffffffffffffffffffffffffffffffffffffffff021916908373ffffffffffffffffffffffffffffffffffffffff160217905550916020019190600101906105fa565b5b5090506106609190610664565b5090565b5b8082111561067d576000816000905550600101610665565b5090565b6000819050919050565b61069481610681565b82525050565b60006020820190506106af600083018461068b565b92915050565b600080fd5b600073ffffffffffffffffffffffffffffffffffffffff82169050919050565b60006106e5826106ba565b9050919050565b6106f5816106da565b811461070057600080fd5b50565b600081359050610712816106ec565b92915050565b60006020828403121561072e5761072d6106b5565b5b600061073c84828501610703565b91505092915050565b61074e81610681565b811461075957600080fd5b50565b60008135905061076b81610745565b92915050565b600060208284031215610787576107866106b5565b5b60006107958482850161075c565b91505092915050565b6107a7816106da565b82525050565b60006020820190506107c2600083018461079e565b92915050565b7f4e487b7100000000000000000000000000000000000000000000000000000000600052603260045260246000fd5b7f4e487b7100000000000000000000000000000000000000000000000000000000600052601160045260246000fd5b600061083182610681565b91507fffffffffffffffffffffffffffffffffffffffffffffffffffffffffffffffff8203610863576108626107f7565b5b600182019050919050565b7f4e487b7100000000000000000000000000000000000000000000000000000000600052604160045260246000fd5b600082825260208201905092915050565b7f53656e64206661696c6564000000000000000000000000000000000000000000600082015250565b60006108e4600b8361089d565b91506108ef826108ae565b602082019050919050565b60006020820190508181036000830152610913816108d7565b9050919050565b600081905092915050565b50565b600061093560008361091a565b915061094082610925565b600082019050919050565b600061095682610928565b9150819050919050565b7f43616c6c206661696c6564000000000000000000000000000000000000000000600082015250565b6000610996600b8361089d565b91506109a182610960565b602082019050919050565b600060208201905081810360008301526109c581610989565b9050919050565b7f6469646e27742073656e6420656e6f7567682065746865720000000000000000600082015250565b6000610a0260188361089d565b9150610a0d826109cc565b602082019050919050565b60006020820190508181036000830152610a31816109f5565b9050919050565b6000610a4382610681565b9150610a4e83610681565b9250828201905080821115610a6657610a656107f7565b5b92915050565b6000610a7782610681565b9150610a8283610681565b9250828202610a9081610681565b91508282048414831517610aa757610aa66107f7565b5b5092915050565b7f4e487b7100000000000000000000000000000000000000000000000000000000600052601260045260246000fd5b6000610ae882610681565b9150610af383610681565b925082610b0357610b02610aae565b5b828204905092915050565b600069ffffffffffffffffffff82169050919050565b610b2d81610b0e565b8114610b3857600080fd5b50565b600081519050610b4a81610b24565b92915050565b6000819050919050565b610b6381610b50565b8114610b6e57600080fd5b50565b600081519050610b8081610b5a565b92915050565b600081519050610b9581610745565b92915050565b600080600080600060a08688031215610bb757610bb66106b5565b5b6000610bc588828901610b3b565b9550506020610bd688828901610b71565b9450506040610be788828901610b86565b9350506060610bf888828901610b86565b9250506080610c0988828901610b3b565b915050929550929590935056fea2646970667358221220413bd18f12e3fa4f312e8414e293ec943f5ebe764ded7963e6fe3be7b520cbca64736f6c63430008130033",
					"opcodes": "PUSH1 0x80 PUSH1 0x40 MSTORE PUSH8 0x4563918244F40000 PUSH1 0x0 SSTORE PUSH2 0xC4C DUP1 PUSH2 0x1F PUSH1 0x0 CODECOPY PUSH1 0x0 RETURN INVALID PUSH1 0x80 PUSH1 0x40 MSTORE PUSH1 0x4 CALLDATASIZE LT PUSH2 0x4A JUMPI PUSH1 0x0 CALLDATALOAD PUSH1 0xE0 SHR DUP1 PUSH4 0x98DE820 EQ PUSH2 0x4F JUMPI DUP1 PUSH4 0x3CCFD60B EQ PUSH2 0x7A JUMPI DUP1 PUSH4 0x3E47D6F3 EQ PUSH2 0x91 JUMPI DUP1 PUSH4 0xB60D4288 EQ PUSH2 0xCE JUMPI DUP1 PUSH4 0xDC0D3DFF EQ PUSH2 0xD8 JUMPI JUMPDEST PUSH1 0x0 DUP1 REVERT JUMPDEST CALLVALUE DUP1 ISZERO PUSH2 0x5B JUMPI PUSH1 0x0 DUP1 REVERT JUMPDEST POP PUSH2 0x64 PUSH2 0x115 JUMP JUMPDEST PUSH1 0x40 MLOAD PUSH2 0x71 SWAP2 SWAP1 PUSH2 0x69A JUMP JUMPDEST PUSH1 0x40 MLOAD DUP1 SWAP2 SUB SWAP1 RETURN JUMPDEST CALLVALUE DUP1 ISZERO PUSH2 0x86 JUMPI PUSH1 0x0 DUP1 REVERT JUMPDEST POP PUSH2 0x8F PUSH2 0x11B JUMP JUMPDEST STOP JUMPDEST CALLVALUE DUP1 ISZERO PUSH2 0x9D JUMPI PUSH1 0x0 DUP1 REVERT JUMPDEST POP PUSH2 0xB8 PUSH1 0x4 DUP1 CALLDATASIZE SUB DUP2 ADD SWAP1 PUSH2 0xB3 SWAP2 SWAP1 PUSH2 0x718 JUMP JUMPDEST PUSH2 0x398 JUMP JUMPDEST PUSH1 0x40 MLOAD PUSH2 0xC5 SWAP2 SWAP1 PUSH2 0x69A JUMP JUMPDEST PUSH1 0x40 MLOAD DUP1 SWAP2 SUB SWAP1 RETURN JUMPDEST PUSH2 0xD6 PUSH2 0x3B0 JUMP JUMPDEST STOP JUMPDEST CALLVALUE DUP1 ISZERO PUSH2 0xE4 JUMPI PUSH1 0x0 DUP1 REVERT JUMPDEST POP PUSH2 0xFF PUSH1 0x4 DUP1 CALLDATASIZE SUB DUP2 ADD SWAP1 PUSH2 0xFA SWAP2 SWAP1 PUSH2 0x771 JUMP JUMPDEST PUSH2 0x4B8 JUMP JUMPDEST PUSH1 0x40 MLOAD PUSH2 0x10C SWAP2 SWAP1 PUSH2 0x7AD JUMP JUMPDEST PUSH1 0x40 MLOAD DUP1 SWAP2 SUB SWAP1 RETURN JUMPDEST PUSH1 0x0 SLOAD DUP2 JUMP JUMPDEST PUSH1 0x0 JUMPDEST PUSH1 0x1 DUP1 SLOAD SWAP1 POP DUP2 LT ISZERO PUSH2 0x1C7 JUMPI PUSH1 0x0 PUSH1 0x1 DUP3 DUP2 SLOAD DUP2 LT PUSH2 0x141 JUMPI PUSH2 0x140 PUSH2 0x7C8 JUMP JUMPDEST JUMPDEST SWAP1 PUSH1 0x0 MSTORE PUSH1 0x20 PUSH1 0x0 KECCAK256 ADD PUSH1 0x0 SWAP1 SLOAD SWAP1 PUSH2 0x100 EXP SWAP1 DIV PUSH20 0xFFFFFFFFFFFFFFFFFFFFFFFFFFFFFFFFFFFFFFFF AND SWAP1 POP PUSH1 0x0 PUSH1 0x2 PUSH1 0x0 DUP4 PUSH20 0xFFFFFFFFFFFFFFFFFFFFFFFFFFFFFFFFFFFFFFFF AND PUSH20 0xFFFFFFFFFFFFFFFFFFFFFFFFFFFFFFFFFFFFFFFF AND DUP2 MSTORE PUSH1 0x20 ADD SWAP1 DUP2 MSTORE PUSH1 0x20 ADD PUSH1 0x0 KECCAK256 DUP2 SWAP1 SSTORE POP POP DUP1 DUP1 PUSH2 0x1BF SWAP1 PUSH2 0x826 JUMP JUMPDEST SWAP2 POP POP PUSH2 0x11E JUMP JUMPDEST POP PUSH1 0x0 PUSH8 0xFFFFFFFFFFFFFFFF DUP2 GT ISZERO PUSH2 0x1E3 JUMPI PUSH2 0x1E2 PUSH2 0x86E JUMP JUMPDEST JUMPDEST PUSH1 0x40 MLOAD SWAP1 DUP1 DUP3 MSTORE DUP1 PUSH1 0x20 MUL PUSH1 0x20 ADD DUP3 ADD PUSH1 0x40 MSTORE DUP1 ISZERO PUSH2 0x211 JUMPI DUP2 PUSH1 0x20 ADD PUSH1 0x20 DUP3 MUL DUP1 CALLDATASIZE DUP4 CALLDATACOPY DUP1 DUP3 ADD SWAP2 POP POP SWAP1 POP JUMPDEST POP PUSH1 0x1 SWAP1 DUP1 MLOAD SWAP1 PUSH1 0x20 ADD SWAP1 PUSH2 0x227 SWAP3 SWAP2 SWAP1 PUSH2 0x5DA JUMP JUMPDEST POP CALLER PUSH20 0xFFFFFFFFFFFFFFFFFFFFFFFFFFFFFFFFFFFFFFFF AND PUSH2 0x8FC SELFBALANCE SWAP1 DUP2 ISZERO MUL SWAP1 PUSH1 0x40 MLOAD PUSH1 0x0 PUSH1 0x40 MLOAD DUP1 DUP4 SUB DUP2 DUP6 DUP9 DUP9 CALL SWAP4 POP POP POP POP ISZERO DUP1 ISZERO PUSH2 0x26E JUMPI RETURNDATASIZE PUSH1 0x0 DUP1 RETURNDATACOPY RETURNDATASIZE PUSH1 0x0 REVERT JUMPDEST POP PUSH1 0x0 CALLER PUSH20 0xFFFFFFFFFFFFFFFFFFFFFFFFFFFFFFFFFFFFFFFF AND PUSH2 0x8FC SELFBALANCE SWAP1 DUP2 ISZERO MUL SWAP1 PUSH1 0x40 MLOAD PUSH1 0x0 PUSH1 0x40 MLOAD DUP1 DUP4 SUB DUP2 DUP6 DUP9 DUP9 CALL SWAP4 POP POP POP POP SWAP1 POP DUP1 PUSH2 0x2E8 JUMPI PUSH1 0x40 MLOAD PUSH32 0x8C379A000000000000000000000000000000000000000000000000000000000 DUP2 MSTORE PUSH1 0x4 ADD PUSH2 0x2DF SWAP1 PUSH2 0x8FA JUMP JUMPDEST PUSH1 0x40 MLOAD DUP1 SWAP2 SUB SWAP1 REVERT JUMPDEST PUSH1 0x0 CALLER PUSH20 0xFFFFFFFFFFFFFFFFFFFFFFFFFFFFFFFFFFFFFFFF AND SELFBALANCE PUSH1 0x40 MLOAD PUSH2 0x30E SWAP1 PUSH2 0x94B JUMP JUMPDEST PUSH1 0x0 PUSH1 0x40 MLOAD DUP1 DUP4 SUB DUP2 DUP6 DUP8 GAS CALL SWAP3 POP POP POP RETURNDATASIZE DUP1 PUSH1 0x0 DUP2 EQ PUSH2 0x34B JUMPI PUSH1 0x40 MLOAD SWAP2 POP PUSH1 0x1F NOT PUSH1 0x3F RETURNDATASIZE ADD AND DUP3 ADD PUSH1 0x40 MSTORE RETURNDATASIZE DUP3 MSTORE RETURNDATASIZE PUSH1 0x0 PUSH1 0x20 DUP5 ADD RETURNDATACOPY PUSH2 0x350 JUMP JUMPDEST PUSH1 0x60 SWAP2 POP JUMPDEST POP POP SWAP1 POP DUP1 PUSH2 0x394 JUMPI PUSH1 0x40 MLOAD PUSH32 0x8C379A000000000000000000000000000000000000000000000000000000000 DUP2 MSTORE PUSH1 0x4 ADD PUSH2 0x38B SWAP1 PUSH2 0x9AC JUMP JUMPDEST PUSH1 0x40 MLOAD DUP1 SWAP2 SUB SWAP1 REVERT JUMPDEST POP POP JUMP JUMPDEST PUSH1 0x2 PUSH1 0x20 MSTORE DUP1 PUSH1 0x0 MSTORE PUSH1 0x40 PUSH1 0x0 KECCAK256 PUSH1 0x0 SWAP2 POP SWAP1 POP SLOAD DUP2 JUMP JUMPDEST PUSH1 0x0 SLOAD PUSH2 0x3BC CALLVALUE PUSH2 0x4F7 JUMP JUMPDEST LT ISZERO PUSH2 0x3FD JUMPI PUSH1 0x40 MLOAD PUSH32 0x8C379A000000000000000000000000000000000000000000000000000000000 DUP2 MSTORE PUSH1 0x4 ADD PUSH2 0x3F4 SWAP1 PUSH2 0xA18 JUMP JUMPDEST PUSH1 0x40 MLOAD DUP1 SWAP2 SUB SWAP1 REVERT JUMPDEST PUSH1 0x1 CALLER SWAP1 DUP1 PUSH1 0x1 DUP2 SLOAD ADD DUP1 DUP3 SSTORE DUP1 SWAP2 POP POP PUSH1 0x1 SWAP1 SUB SWAP1 PUSH1 0x0 MSTORE PUSH1 0x20 PUSH1 0x0 KECCAK256 ADD PUSH1 0x0 SWAP1 SWAP2 SWAP1 SWAP2 SWAP1 SWAP2 PUSH2 0x100 EXP DUP2 SLOAD DUP2 PUSH20 0xFFFFFFFFFFFFFFFFFFFFFFFFFFFFFFFFFFFFFFFF MUL NOT AND SWAP1 DUP4 PUSH20 0xFFFFFFFFFFFFFFFFFFFFFFFFFFFFFFFFFFFFFFFF AND MUL OR SWAP1 SSTORE POP CALLVALUE PUSH1 0x2 PUSH1 0x0 CALLER PUSH20 0xFFFFFFFFFFFFFFFFFFFFFFFFFFFFFFFFFFFFFFFF AND PUSH20 0xFFFFFFFFFFFFFFFFFFFFFFFFFFFFFFFFFFFFFFFF AND DUP2 MSTORE PUSH1 0x20 ADD SWAP1 DUP2 MSTORE PUSH1 0x20 ADD PUSH1 0x0 KECCAK256 PUSH1 0x0 DUP3 DUP3 SLOAD PUSH2 0x4AF SWAP2 SWAP1 PUSH2 0xA38 JUMP JUMPDEST SWAP3 POP POP DUP2 SWAP1 SSTORE POP JUMP JUMPDEST PUSH1 0x1 DUP2 DUP2 SLOAD DUP2 LT PUSH2 0x4C8 JUMPI PUSH1 0x0 DUP1 REVERT JUMPDEST SWAP1 PUSH1 0x0 MSTORE PUSH1 0x20 PUSH1 0x0 KECCAK256 ADD PUSH1 0x0 SWAP2 POP SLOAD SWAP1 PUSH2 0x100 EXP SWAP1 DIV PUSH20 0xFFFFFFFFFFFFFFFFFFFFFFFFFFFFFFFFFFFFFFFF AND DUP2 JUMP JUMPDEST PUSH1 0x0 DUP1 PUSH2 0x502 PUSH2 0x531 JUMP JUMPDEST SWAP1 POP PUSH1 0x0 PUSH8 0xDE0B6B3A7640000 DUP5 DUP4 PUSH2 0x51B SWAP2 SWAP1 PUSH2 0xA6C JUMP JUMPDEST PUSH2 0x525 SWAP2 SWAP1 PUSH2 0xADD JUMP JUMPDEST SWAP1 POP DUP1 SWAP3 POP POP POP SWAP2 SWAP1 POP JUMP JUMPDEST PUSH1 0x0 DUP1 PUSH20 0x1B44F3514812D835EB1BDB0ACB33D3FA3351EE43 SWAP1 POP PUSH1 0x0 DUP2 PUSH20 0xFFFFFFFFFFFFFFFFFFFFFFFFFFFFFFFFFFFFFFFF AND PUSH4 0xFEAF968C PUSH1 0x40 MLOAD DUP2 PUSH4 0xFFFFFFFF AND PUSH1 0xE0 SHL DUP2 MSTORE PUSH1 0x4 ADD PUSH1 0xA0 PUSH1 0x40 MLOAD DUP1 DUP4 SUB DUP2 DUP7 GAS STATICCALL ISZERO DUP1 ISZERO PUSH2 0x598 JUMPI RETURNDATASIZE PUSH1 0x0 DUP1 RETURNDATACOPY RETURNDATASIZE PUSH1 0x0 REVERT JUMPDEST POP POP POP POP PUSH1 0x40 MLOAD RETURNDATASIZE PUSH1 0x1F NOT PUSH1 0x1F DUP3 ADD AND DUP3 ADD DUP1 PUSH1 0x40 MSTORE POP DUP2 ADD SWAP1 PUSH2 0x5BC SWAP2 SWAP1 PUSH2 0xB9B JUMP JUMPDEST POP POP POP SWAP2 POP POP PUSH5 0x2540BE400 DUP2 PUSH2 0x5D3 SWAP2 SWAP1 PUSH2 0xA6C JUMP JUMPDEST SWAP3 POP POP POP SWAP1 JUMP JUMPDEST DUP3 DUP1 SLOAD DUP3 DUP3 SSTORE SWAP1 PUSH1 0x0 MSTORE PUSH1 0x20 PUSH1 0x0 KECCAK256 SWAP1 DUP2 ADD SWAP3 DUP3 ISZERO PUSH2 0x653 JUMPI SWAP2 PUSH1 0x20 MUL DUP3 ADD JUMPDEST DUP3 DUP2 GT ISZERO PUSH2 0x652 JUMPI DUP3 MLOAD DUP3 PUSH1 0x0 PUSH2 0x100 EXP DUP2 SLOAD DUP2 PUSH20 0xFFFFFFFFFFFFFFFFFFFFFFFFFFFFFFFFFFFFFFFF MUL NOT AND SWAP1 DUP4 PUSH20 0xFFFFFFFFFFFFFFFFFFFFFFFFFFFFFFFFFFFFFFFF AND MUL OR SWAP1 SSTORE POP SWAP2 PUSH1 0x20 ADD SWAP2 SWAP1 PUSH1 0x1 ADD SWAP1 PUSH2 0x5FA JUMP JUMPDEST JUMPDEST POP SWAP1 POP PUSH2 0x660 SWAP2 SWAP1 PUSH2 0x664 JUMP JUMPDEST POP SWAP1 JUMP JUMPDEST JUMPDEST DUP1 DUP3 GT ISZERO PUSH2 0x67D JUMPI PUSH1 0x0 DUP2 PUSH1 0x0 SWAP1 SSTORE POP PUSH1 0x1 ADD PUSH2 0x665 JUMP JUMPDEST POP SWAP1 JUMP JUMPDEST PUSH1 0x0 DUP2 SWAP1 POP SWAP2 SWAP1 POP JUMP JUMPDEST PUSH2 0x694 DUP2 PUSH2 0x681 JUMP JUMPDEST DUP3 MSTORE POP POP JUMP JUMPDEST PUSH1 0x0 PUSH1 0x20 DUP3 ADD SWAP1 POP PUSH2 0x6AF PUSH1 0x0 DUP4 ADD DUP5 PUSH2 0x68B JUMP JUMPDEST SWAP3 SWAP2 POP POP JUMP JUMPDEST PUSH1 0x0 DUP1 REVERT JUMPDEST PUSH1 0x0 PUSH20 0xFFFFFFFFFFFFFFFFFFFFFFFFFFFFFFFFFFFFFFFF DUP3 AND SWAP1 POP SWAP2 SWAP1 POP JUMP JUMPDEST PUSH1 0x0 PUSH2 0x6E5 DUP3 PUSH2 0x6BA JUMP JUMPDEST SWAP1 POP SWAP2 SWAP1 POP JUMP JUMPDEST PUSH2 0x6F5 DUP2 PUSH2 0x6DA JUMP JUMPDEST DUP2 EQ PUSH2 0x700 JUMPI PUSH1 0x0 DUP1 REVERT JUMPDEST POP JUMP JUMPDEST PUSH1 0x0 DUP2 CALLDATALOAD SWAP1 POP PUSH2 0x712 DUP2 PUSH2 0x6EC JUMP JUMPDEST SWAP3 SWAP2 POP POP JUMP JUMPDEST PUSH1 0x0 PUSH1 0x20 DUP3 DUP5 SUB SLT ISZERO PUSH2 0x72E JUMPI PUSH2 0x72D PUSH2 0x6B5 JUMP JUMPDEST JUMPDEST PUSH1 0x0 PUSH2 0x73C DUP5 DUP3 DUP6 ADD PUSH2 0x703 JUMP JUMPDEST SWAP2 POP POP SWAP3 SWAP2 POP POP JUMP JUMPDEST PUSH2 0x74E DUP2 PUSH2 0x681 JUMP JUMPDEST DUP2 EQ PUSH2 0x759 JUMPI PUSH1 0x0 DUP1 REVERT JUMPDEST POP JUMP JUMPDEST PUSH1 0x0 DUP2 CALLDATALOAD SWAP1 POP PUSH2 0x76B DUP2 PUSH2 0x745 JUMP JUMPDEST SWAP3 SWAP2 POP POP JUMP JUMPDEST PUSH1 0x0 PUSH1 0x20 DUP3 DUP5 SUB SLT ISZERO PUSH2 0x787 JUMPI PUSH2 0x786 PUSH2 0x6B5 JUMP JUMPDEST JUMPDEST PUSH1 0x0 PUSH2 0x795 DUP5 DUP3 DUP6 ADD PUSH2 0x75C JUMP JUMPDEST SWAP2 POP POP SWAP3 SWAP2 POP POP JUMP JUMPDEST PUSH2 0x7A7 DUP2 PUSH2 0x6DA JUMP JUMPDEST DUP3 MSTORE POP POP JUMP JUMPDEST PUSH1 0x0 PUSH1 0x20 DUP3 ADD SWAP1 POP PUSH2 0x7C2 PUSH1 0x0 DUP4 ADD DUP5 PUSH2 0x79E JUMP JUMPDEST SWAP3 SWAP2 POP POP JUMP JUMPDEST PUSH32 0x4E487B7100000000000000000000000000000000000000000000000000000000 PUSH1 0x0 MSTORE PUSH1 0x32 PUSH1 0x4 MSTORE PUSH1 0x24 PUSH1 0x0 REVERT JUMPDEST PUSH32 0x4E487B7100000000000000000000000000000000000000000000000000000000 PUSH1 0x0 MSTORE PUSH1 0x11 PUSH1 0x4 MSTORE PUSH1 0x24 PUSH1 0x0 REVERT JUMPDEST PUSH1 0x0 PUSH2 0x831 DUP3 PUSH2 0x681 JUMP JUMPDEST SWAP2 POP PUSH32 0xFFFFFFFFFFFFFFFFFFFFFFFFFFFFFFFFFFFFFFFFFFFFFFFFFFFFFFFFFFFFFFFF DUP3 SUB PUSH2 0x863 JUMPI PUSH2 0x862 PUSH2 0x7F7 JUMP JUMPDEST JUMPDEST PUSH1 0x1 DUP3 ADD SWAP1 POP SWAP2 SWAP1 POP JUMP JUMPDEST PUSH32 0x4E487B7100000000000000000000000000000000000000000000000000000000 PUSH1 0x0 MSTORE PUSH1 0x41 PUSH1 0x4 MSTORE PUSH1 0x24 PUSH1 0x0 REVERT JUMPDEST PUSH1 0x0 DUP3 DUP3 MSTORE PUSH1 0x20 DUP3 ADD SWAP1 POP SWAP3 SWAP2 POP POP JUMP JUMPDEST PUSH32 0x53656E64206661696C6564000000000000000000000000000000000000000000 PUSH1 0x0 DUP3 ADD MSTORE POP JUMP JUMPDEST PUSH1 0x0 PUSH2 0x8E4 PUSH1 0xB DUP4 PUSH2 0x89D JUMP JUMPDEST SWAP2 POP PUSH2 0x8EF DUP3 PUSH2 0x8AE JUMP JUMPDEST PUSH1 0x20 DUP3 ADD SWAP1 POP SWAP2 SWAP1 POP JUMP JUMPDEST PUSH1 0x0 PUSH1 0x20 DUP3 ADD SWAP1 POP DUP2 DUP2 SUB PUSH1 0x0 DUP4 ADD MSTORE PUSH2 0x913 DUP2 PUSH2 0x8D7 JUMP JUMPDEST SWAP1 POP SWAP2 SWAP1 POP JUMP JUMPDEST PUSH1 0x0 DUP2 SWAP1 POP SWAP3 SWAP2 POP POP JUMP JUMPDEST POP JUMP JUMPDEST PUSH1 0x0 PUSH2 0x935 PUSH1 0x0 DUP4 PUSH2 0x91A JUMP JUMPDEST SWAP2 POP PUSH2 0x940 DUP3 PUSH2 0x925 JUMP JUMPDEST PUSH1 0x0 DUP3 ADD SWAP1 POP SWAP2 SWAP1 POP JUMP JUMPDEST PUSH1 0x0 PUSH2 0x956 DUP3 PUSH2 0x928 JUMP JUMPDEST SWAP2 POP DUP2 SWAP1 POP SWAP2 SWAP1 POP JUMP JUMPDEST PUSH32 0x43616C6C206661696C6564000000000000000000000000000000000000000000 PUSH1 0x0 DUP3 ADD MSTORE POP JUMP JUMPDEST PUSH1 0x0 PUSH2 0x996 PUSH1 0xB DUP4 PUSH2 0x89D JUMP JUMPDEST SWAP2 POP PUSH2 0x9A1 DUP3 PUSH2 0x960 JUMP JUMPDEST PUSH1 0x20 DUP3 ADD SWAP1 POP SWAP2 SWAP1 POP JUMP JUMPDEST PUSH1 0x0 PUSH1 0x20 DUP3 ADD SWAP1 POP DUP2 DUP2 SUB PUSH1 0x0 DUP4 ADD MSTORE PUSH2 0x9C5 DUP2 PUSH2 0x989 JUMP JUMPDEST SWAP1 POP SWAP2 SWAP1 POP JUMP JUMPDEST PUSH32 0x6469646E27742073656E6420656E6F7567682065746865720000000000000000 PUSH1 0x0 DUP3 ADD MSTORE POP JUMP JUMPDEST PUSH1 0x0 PUSH2 0xA02 PUSH1 0x18 DUP4 PUSH2 0x89D JUMP JUMPDEST SWAP2 POP PUSH2 0xA0D DUP3 PUSH2 0x9CC JUMP JUMPDEST PUSH1 0x20 DUP3 ADD SWAP1 POP SWAP2 SWAP1 POP JUMP JUMPDEST PUSH1 0x0 PUSH1 0x20 DUP3 ADD SWAP1 POP DUP2 DUP2 SUB PUSH1 0x0 DUP4 ADD MSTORE PUSH2 0xA31 DUP2 PUSH2 0x9F5 JUMP JUMPDEST SWAP1 POP SWAP2 SWAP1 POP JUMP JUMPDEST PUSH1 0x0 PUSH2 0xA43 DUP3 PUSH2 0x681 JUMP JUMPDEST SWAP2 POP PUSH2 0xA4E DUP4 PUSH2 0x681 JUMP JUMPDEST SWAP3 POP DUP3 DUP3 ADD SWAP1 POP DUP1 DUP3 GT ISZERO PUSH2 0xA66 JUMPI PUSH2 0xA65 PUSH2 0x7F7 JUMP JUMPDEST JUMPDEST SWAP3 SWAP2 POP POP JUMP JUMPDEST PUSH1 0x0 PUSH2 0xA77 DUP3 PUSH2 0x681 JUMP JUMPDEST SWAP2 POP PUSH2 0xA82 DUP4 PUSH2 0x681 JUMP JUMPDEST SWAP3 POP DUP3 DUP3 MUL PUSH2 0xA90 DUP2 PUSH2 0x681 JUMP JUMPDEST SWAP2 POP DUP3 DUP3 DIV DUP5 EQ DUP4 ISZERO OR PUSH2 0xAA7 JUMPI PUSH2 0xAA6 PUSH2 0x7F7 JUMP JUMPDEST JUMPDEST POP SWAP3 SWAP2 POP POP JUMP JUMPDEST PUSH32 0x4E487B7100000000000000000000000000000000000000000000000000000000 PUSH1 0x0 MSTORE PUSH1 0x12 PUSH1 0x4 MSTORE PUSH1 0x24 PUSH1 0x0 REVERT JUMPDEST PUSH1 0x0 PUSH2 0xAE8 DUP3 PUSH2 0x681 JUMP JUMPDEST SWAP2 POP PUSH2 0xAF3 DUP4 PUSH2 0x681 JUMP JUMPDEST SWAP3 POP DUP3 PUSH2 0xB03 JUMPI PUSH2 0xB02 PUSH2 0xAAE JUMP JUMPDEST JUMPDEST DUP3 DUP3 DIV SWAP1 POP SWAP3 SWAP2 POP POP JUMP JUMPDEST PUSH1 0x0 PUSH10 0xFFFFFFFFFFFFFFFFFFFF DUP3 AND SWAP1 POP SWAP2 SWAP1 POP JUMP JUMPDEST PUSH2 0xB2D DUP2 PUSH2 0xB0E JUMP JUMPDEST DUP2 EQ PUSH2 0xB38 JUMPI PUSH1 0x0 DUP1 REVERT JUMPDEST POP JUMP JUMPDEST PUSH1 0x0 DUP2 MLOAD SWAP1 POP PUSH2 0xB4A DUP2 PUSH2 0xB24 JUMP JUMPDEST SWAP3 SWAP2 POP POP JUMP JUMPDEST PUSH1 0x0 DUP2 SWAP1 POP SWAP2 SWAP1 POP JUMP JUMPDEST PUSH2 0xB63 DUP2 PUSH2 0xB50 JUMP JUMPDEST DUP2 EQ PUSH2 0xB6E JUMPI PUSH1 0x0 DUP1 REVERT JUMPDEST POP JUMP JUMPDEST PUSH1 0x0 DUP2 MLOAD SWAP1 POP PUSH2 0xB80 DUP2 PUSH2 0xB5A JUMP JUMPDEST SWAP3 SWAP2 POP POP JUMP JUMPDEST PUSH1 0x0 DUP2 MLOAD SWAP1 POP PUSH2 0xB95 DUP2 PUSH2 0x745 JUMP JUMPDEST SWAP3 SWAP2 POP POP JUMP JUMPDEST PUSH1 0x0 DUP1 PUSH1 0x0 DUP1 PUSH1 0x0 PUSH1 0xA0 DUP7 DUP9 SUB SLT ISZERO PUSH2 0xBB7 JUMPI PUSH2 0xBB6 PUSH2 0x6B5 JUMP JUMPDEST JUMPDEST PUSH1 0x0 PUSH2 0xBC5 DUP9 DUP3 DUP10 ADD PUSH2 0xB3B JUMP JUMPDEST SWAP6 POP POP PUSH1 0x20 PUSH2 0xBD6 DUP9 DUP3 DUP10 ADD PUSH2 0xB71 JUMP JUMPDEST SWAP5 POP POP PUSH1 0x40 PUSH2 0xBE7 DUP9 DUP3 DUP10 ADD PUSH2 0xB86 JUMP JUMPDEST SWAP4 POP POP PUSH1 0x60 PUSH2 0xBF8 DUP9 DUP3 DUP10 ADD PUSH2 0xB86 JUMP JUMPDEST SWAP3 POP POP PUSH1 0x80 PUSH2 0xC09 DUP9 DUP3 DUP10 ADD PUSH2 0xB3B JUMP JUMPDEST SWAP2 POP POP SWAP3 SWAP6 POP SWAP3 SWAP6 SWAP1 SWAP4 POP JUMP INVALID LOG2 PUSH5 0x6970667358 0x22 SLT KECCAK256 COINBASE EXTCODESIZE 0xD1 DUP16 SLT 0xE3 STATICCALL 0x4F BALANCE 0x2E DUP5 EQ 0xE2 SWAP4 0xEC SWAP5 EXTCODEHASH 0x5E 0xBE PUSH23 0x4DED7963E6FE3BE7B520CBCA64736F6C63430008130033 "
				},
				"gasEstimates": {
					"creation": {
						"codeDepositCost": "629600",
						"executionCost": "22746",
						"totalCost": "652346"
					},
					"external": {
						"addressToAmountFunded(address)": "2836",
						"fund()": "infinite",
						"funders(uint256)": "5022",
						"minimumUsd()": "2407",
						"withdraw()": "infinite"
					}
				},
				"methodIdentifiers": {
					"addressToAmountFunded(address)": "3e47d6f3",
					"fund()": "b60d4288",
					"funders(uint256)": "dc0d3dff",
					"minimumUsd()": "098de820",
					"withdraw()": "3ccfd60b"
				}
			},
			"storageLayout": {
				"storage": [
					{
						"astId": 59,
						"contract": "FundMe.sol:FundMe",
						"label": "minimumUsd",
						"offset": 0,
						"slot": "0",
						"type": "t_uint256"
					},
					{
						"astId": 62,
						"contract": "FundMe.sol:FundMe",
						"label": "funders",
						"offset": 0,
						"slot": "1",
						"type": "t_array(t_address)dyn_storage"
					},
					{
						"astId": 66,
						"contract": "FundMe.sol:FundMe",
						"label": "addressToAmountFunded",
						"offset": 0,
						"slot": "2",
						"type": "t_mapping(t_address,t_uint256)"
					}
				],
				"types": {
					"t_address": {
						"encoding": "inplace",
						"label": "address",
						"numberOfBytes": "20"
					},
					"t_array(t_address)dyn_storage": {
						"base": "t_address",
						"encoding": "dynamic_array",
						"label": "address[]",
						"numberOfBytes": "32"
					},
					"t_mapping(t_address,t_uint256)": {
						"encoding": "mapping",
						"key": "t_address",
						"label": "mapping(address => uint256)",
						"numberOfBytes": "32",
						"value": "t_uint256"
					},
					"t_uint256": {
						"encoding": "inplace",
						"label": "uint256",
						"numberOfBytes": "32"
					}
				}
			},
			"userdoc": {
				"kind": "user",
				"methods": {},
				"version": 1
			}
		}
	}
}