{
	"FundMe.sol": {
		"FundMe": {
			"abi": [
				{
					"inputs": [],
					"stateMutability": "payable",
					"type": "constructor"
				},
				{
					"inputs": [],
					"name": "fund",
					"outputs": [],
					"stateMutability": "payable",
					"type": "function"
				},
				{
					"inputs": [],
					"name": "getConversationRate",
					"outputs": [],
					"stateMutability": "nonpayable",
					"type": "function"
				},
				{
					"inputs": [],
					"name": "getPrice",
					"outputs": [
						{
							"internalType": "uint256",
							"name": "",
							"type": "uint256"
						}
					],
					"stateMutability": "view",
					"type": "function"
				},
				{
					"inputs": [],
					"name": "getVersion",
					"outputs": [
						{
							"internalType": "uint256",
							"name": "",
							"type": "uint256"
						}
					],
					"stateMutability": "view",
					"type": "function"
				},
				{
					"inputs": [],
					"name": "minimumUsd",
					"outputs": [
						{
							"internalType": "uint256",
							"name": "",
							"type": "uint256"
						}
					],
					"stateMutability": "view",
					"type": "function"
				}
			],
			"devdoc": {
				"kind": "dev",
				"methods": {},
				"version": 1
			},
			"evm": {
				"assembly": "    /* \"FundMe.sol\":171:1127  contract FundMe {... */\n  mstore(0x40, 0x80)\n    /* \"FundMe.sol\":283:284  5 */\n  0x05\n    /* \"FundMe.sol\":258:284  uint public minimumUsd = 5 */\n  0x00\n  sstore\n    /* \"FundMe.sol\":171:1127  contract FundMe {... */\n  dataSize(sub_0)\n  dup1\n  dataOffset(sub_0)\n  0x00\n  codecopy\n  0x00\n  return\nstop\n\nsub_0: assembly {\n        /* \"FundMe.sol\":171:1127  contract FundMe {... */\n      mstore(0x40, 0x80)\n      jumpi(tag_1, lt(calldatasize, 0x04))\n      shr(0xe0, calldataload(0x00))\n      dup1\n      0x098de820\n      eq\n      tag_2\n      jumpi\n      dup1\n      0x0d8e6e2c\n      eq\n      tag_3\n      jumpi\n      dup1\n      0x50ce2420\n      eq\n      tag_4\n      jumpi\n      dup1\n      0x98d5fdca\n      eq\n      tag_5\n      jumpi\n      dup1\n      0xb60d4288\n      eq\n      tag_6\n      jumpi\n    tag_1:\n      0x00\n      dup1\n      revert\n        /* \"FundMe.sol\":258:284  uint public minimumUsd = 5 */\n    tag_2:\n      callvalue\n      dup1\n      iszero\n      tag_7\n      jumpi\n      0x00\n      dup1\n      revert\n    tag_7:\n      pop\n      tag_8\n      tag_9\n      jump\t// in\n    tag_8:\n      mload(0x40)\n      tag_10\n      swap2\n      swap1\n      tag_11\n      jump\t// in\n    tag_10:\n      mload(0x40)\n      dup1\n      swap2\n      sub\n      swap1\n      return\n        /* \"FundMe.sol\":975:1125  function getVersion() public view returns(uint256) {... */\n    tag_3:\n      callvalue\n      dup1\n      iszero\n      tag_12\n      jumpi\n      0x00\n      dup1\n      revert\n    tag_12:\n      pop\n      tag_13\n      tag_14\n      jump\t// in\n    tag_13:\n      mload(0x40)\n      tag_15\n      swap2\n      swap1\n      tag_11\n      jump\t// in\n    tag_15:\n      mload(0x40)\n      dup1\n      swap2\n      sub\n      swap1\n      return\n        /* \"FundMe.sol\":929:969  function getConversationRate() public {} */\n    tag_4:\n      callvalue\n      dup1\n      iszero\n      tag_16\n      jumpi\n      0x00\n      dup1\n      revert\n    tag_16:\n      pop\n      tag_17\n      tag_18\n      jump\t// in\n    tag_17:\n      stop\n        /* \"FundMe.sol\":528:923  function getPrice() public view returns (uint256){... */\n    tag_5:\n      callvalue\n      dup1\n      iszero\n      tag_19\n      jumpi\n      0x00\n      dup1\n      revert\n    tag_19:\n      pop\n      tag_20\n      tag_21\n      jump\t// in\n    tag_20:\n      mload(0x40)\n      tag_22\n      swap2\n      swap1\n      tag_11\n      jump\t// in\n    tag_22:\n      mload(0x40)\n      dup1\n      swap2\n      sub\n      swap1\n      return\n        /* \"FundMe.sol\":291:522  function fund() public payable {... */\n    tag_6:\n      tag_23\n      tag_24\n      jump\t// in\n    tag_23:\n      stop\n        /* \"FundMe.sol\":258:284  uint public minimumUsd = 5 */\n    tag_9:\n      sload(0x00)\n      dup2\n      jump\t// out\n        /* \"FundMe.sol\":975:1125  function getVersion() public view returns(uint256) {... */\n    tag_14:\n        /* \"FundMe.sol\":1017:1024  uint256 */\n      0x00\n        /* \"FundMe.sol\":1065:1107  0x1b44F3514812d835EB1BDB0acB33d3fA3351Ee43 */\n      0x1b44f3514812d835eb1bdb0acb33d3fa3351ee43\n        /* \"FundMe.sol\":1043:1116  AggregatorV3Interface(0x1b44F3514812d835EB1BDB0acB33d3fA3351Ee43).version */\n      0xffffffffffffffffffffffffffffffffffffffff\n      and\n      0x54fd4d50\n        /* \"FundMe.sol\":1043:1118  AggregatorV3Interface(0x1b44F3514812d835EB1BDB0acB33d3fA3351Ee43).version() */\n      mload(0x40)\n      dup2\n      0xffffffff\n      and\n      0xe0\n      shl\n      dup2\n      mstore\n      0x04\n      add\n      0x20\n      mload(0x40)\n      dup1\n      dup4\n      sub\n      dup2\n      dup7\n      gas\n      staticcall\n      iszero\n      dup1\n      iszero\n      tag_27\n      jumpi\n      returndatasize\n      0x00\n      dup1\n      returndatacopy\n      revert(0x00, returndatasize)\n    tag_27:\n      pop\n      pop\n      pop\n      pop\n      mload(0x40)\n      returndatasize\n      not(0x1f)\n      0x1f\n      dup3\n      add\n      and\n      dup3\n      add\n      dup1\n      0x40\n      mstore\n      pop\n      dup2\n      add\n      swap1\n      tag_28\n      swap2\n      swap1\n      tag_29\n      jump\t// in\n    tag_28:\n        /* \"FundMe.sol\":1036:1118  return AggregatorV3Interface(0x1b44F3514812d835EB1BDB0acB33d3fA3351Ee43).version() */\n      swap1\n      pop\n        /* \"FundMe.sol\":975:1125  function getVersion() public view returns(uint256) {... */\n      swap1\n      jump\t// out\n        /* \"FundMe.sol\":929:969  function getConversationRate() public {} */\n    tag_18:\n      jump\t// out\n        /* \"FundMe.sol\":528:923  function getPrice() public view returns (uint256){... */\n    tag_21:\n        /* \"FundMe.sol\":569:576  uint256 */\n      0x00\n        /* \"FundMe.sol\":663:694  AggregatorV3Interface priceFeed */\n      dup1\n        /* \"FundMe.sol\":719:761  0x1b44F3514812d835EB1BDB0acB33d3fA3351Ee43 */\n      0x1b44f3514812d835eb1bdb0acb33d3fa3351ee43\n        /* \"FundMe.sol\":663:762  AggregatorV3Interface priceFeed = AggregatorV3Interface(0x1b44F3514812d835EB1BDB0acB33d3fA3351Ee43) */\n      swap1\n      pop\n        /* \"FundMe.sol\":775:787  int256 price */\n      0x00\n        /* \"FundMe.sol\":794:803  priceFeed */\n      dup2\n        /* \"FundMe.sol\":794:819  priceFeed.latestRoundData */\n      0xffffffffffffffffffffffffffffffffffffffff\n      and\n      0xfeaf968c\n        /* \"FundMe.sol\":794:821  priceFeed.latestRoundData() */\n      mload(0x40)\n      dup2\n      0xffffffff\n      and\n      0xe0\n      shl\n      dup2\n      mstore\n      0x04\n      add\n      0xa0\n      mload(0x40)\n      dup1\n      dup4\n      sub\n      dup2\n      dup7\n      gas\n      staticcall\n      iszero\n      dup1\n      iszero\n      tag_33\n      jumpi\n      returndatasize\n      0x00\n      dup1\n      returndatacopy\n      revert(0x00, returndatasize)\n    tag_33:\n      pop\n      pop\n      pop\n      pop\n      mload(0x40)\n      returndatasize\n      not(0x1f)\n      0x1f\n      dup3\n      add\n      and\n      dup3\n      add\n      dup1\n      0x40\n      mstore\n      pop\n      dup2\n      add\n      swap1\n      tag_34\n      swap2\n      swap1\n      tag_35\n      jump\t// in\n    tag_34:\n        /* \"FundMe.sol\":772:821  (, int256 price,,, )= priceFeed.latestRoundData() */\n      pop\n      pop\n      pop\n      swap2\n      pop\n      pop\n        /* \"FundMe.sol\":912:916  1e10 */\n      0x02540be400\n        /* \"FundMe.sol\":903:908  price */\n      dup2\n        /* \"FundMe.sol\":895:916  uint256(price) * 1e10 */\n      tag_36\n      swap2\n      swap1\n      tag_37\n      jump\t// in\n    tag_36:\n        /* \"FundMe.sol\":888:916  return uint256(price) * 1e10 */\n      swap3\n      pop\n      pop\n      pop\n        /* \"FundMe.sol\":528:923  function getPrice() public view returns (uint256){... */\n      swap1\n      jump\t// out\n        /* \"FundMe.sol\":291:522  function fund() public payable {... */\n    tag_24:\n        /* \"FundMe.sol\":475:485  minimumUsd */\n      sload(0x00)\n        /* \"FundMe.sol\":462:471  msg.value */\n      callvalue\n        /* \"FundMe.sol\":462:485  msg.value >= minimumUsd */\n      lt\n      iszero\n        /* \"FundMe.sol\":454:514  require(msg.value >= minimumUsd, \"didn't send enough ether\") */\n      tag_39\n      jumpi\n      mload(0x40)\n      0x08c379a000000000000000000000000000000000000000000000000000000000\n      dup2\n      mstore\n      0x04\n      add\n      tag_40\n      swap1\n      tag_41\n      jump\t// in\n    tag_40:\n      mload(0x40)\n      dup1\n      swap2\n      sub\n      swap1\n      revert\n    tag_39:\n        /* \"FundMe.sol\":291:522  function fund() public payable {... */\n      jump\t// out\n        /* \"#utility.yul\":7:84   */\n    tag_42:\n        /* \"#utility.yul\":44:51   */\n      0x00\n        /* \"#utility.yul\":73:78   */\n      dup2\n        /* \"#utility.yul\":62:78   */\n      swap1\n      pop\n        /* \"#utility.yul\":7:84   */\n      swap2\n      swap1\n      pop\n      jump\t// out\n        /* \"#utility.yul\":90:208   */\n    tag_43:\n        /* \"#utility.yul\":177:201   */\n      tag_62\n        /* \"#utility.yul\":195:200   */\n      dup2\n        /* \"#utility.yul\":177:201   */\n      tag_42\n      jump\t// in\n    tag_62:\n        /* \"#utility.yul\":172:175   */\n      dup3\n        /* \"#utility.yul\":165:202   */\n      mstore\n        /* \"#utility.yul\":90:208   */\n      pop\n      pop\n      jump\t// out\n        /* \"#utility.yul\":214:436   */\n    tag_11:\n        /* \"#utility.yul\":307:311   */\n      0x00\n        /* \"#utility.yul\":345:347   */\n      0x20\n        /* \"#utility.yul\":334:343   */\n      dup3\n        /* \"#utility.yul\":330:348   */\n      add\n        /* \"#utility.yul\":322:348   */\n      swap1\n      pop\n        /* \"#utility.yul\":358:429   */\n      tag_64\n        /* \"#utility.yul\":426:427   */\n      0x00\n        /* \"#utility.yul\":415:424   */\n      dup4\n        /* \"#utility.yul\":411:428   */\n      add\n        /* \"#utility.yul\":402:408   */\n      dup5\n        /* \"#utility.yul\":358:429   */\n      tag_43\n      jump\t// in\n    tag_64:\n        /* \"#utility.yul\":214:436   */\n      swap3\n      swap2\n      pop\n      pop\n      jump\t// out\n        /* \"#utility.yul\":523:640   */\n    tag_45:\n        /* \"#utility.yul\":632:633   */\n      0x00\n        /* \"#utility.yul\":629:630   */\n      dup1\n        /* \"#utility.yul\":622:634   */\n      revert\n        /* \"#utility.yul\":769:891   */\n    tag_47:\n        /* \"#utility.yul\":842:866   */\n      tag_69\n        /* \"#utility.yul\":860:865   */\n      dup2\n        /* \"#utility.yul\":842:866   */\n      tag_42\n      jump\t// in\n    tag_69:\n        /* \"#utility.yul\":835:840   */\n      dup2\n        /* \"#utility.yul\":832:867   */\n      eq\n        /* \"#utility.yul\":822:885   */\n      tag_70\n      jumpi\n        /* \"#utility.yul\":881:882   */\n      0x00\n        /* \"#utility.yul\":878:879   */\n      dup1\n        /* \"#utility.yul\":871:883   */\n      revert\n        /* \"#utility.yul\":822:885   */\n    tag_70:\n        /* \"#utility.yul\":769:891   */\n      pop\n      jump\t// out\n        /* \"#utility.yul\":897:1040   */\n    tag_48:\n        /* \"#utility.yul\":954:959   */\n      0x00\n        /* \"#utility.yul\":985:991   */\n      dup2\n        /* \"#utility.yul\":979:992   */\n      mload\n        /* \"#utility.yul\":970:992   */\n      swap1\n      pop\n        /* \"#utility.yul\":1001:1034   */\n      tag_72\n        /* \"#utility.yul\":1028:1033   */\n      dup2\n        /* \"#utility.yul\":1001:1034   */\n      tag_47\n      jump\t// in\n    tag_72:\n        /* \"#utility.yul\":897:1040   */\n      swap3\n      swap2\n      pop\n      pop\n      jump\t// out\n        /* \"#utility.yul\":1046:1397   */\n    tag_29:\n        /* \"#utility.yul\":1116:1122   */\n      0x00\n        /* \"#utility.yul\":1165:1167   */\n      0x20\n        /* \"#utility.yul\":1153:1162   */\n      dup3\n        /* \"#utility.yul\":1144:1151   */\n      dup5\n        /* \"#utility.yul\":1140:1163   */\n      sub\n        /* \"#utility.yul\":1136:1168   */\n      slt\n        /* \"#utility.yul\":1133:1252   */\n      iszero\n      tag_74\n      jumpi\n        /* \"#utility.yul\":1171:1250   */\n      tag_75\n      tag_45\n      jump\t// in\n    tag_75:\n        /* \"#utility.yul\":1133:1252   */\n    tag_74:\n        /* \"#utility.yul\":1291:1292   */\n      0x00\n        /* \"#utility.yul\":1316:1380   */\n      tag_76\n        /* \"#utility.yul\":1372:1379   */\n      dup5\n        /* \"#utility.yul\":1363:1369   */\n      dup3\n        /* \"#utility.yul\":1352:1361   */\n      dup6\n        /* \"#utility.yul\":1348:1370   */\n      add\n        /* \"#utility.yul\":1316:1380   */\n      tag_48\n      jump\t// in\n    tag_76:\n        /* \"#utility.yul\":1306:1380   */\n      swap2\n      pop\n        /* \"#utility.yul\":1262:1390   */\n      pop\n        /* \"#utility.yul\":1046:1397   */\n      swap3\n      swap2\n      pop\n      pop\n      jump\t// out\n        /* \"#utility.yul\":1403:1508   */\n    tag_49:\n        /* \"#utility.yul\":1439:1446   */\n      0x00\n        /* \"#utility.yul\":1479:1501   */\n      0xffffffffffffffffffff\n        /* \"#utility.yul\":1472:1477   */\n      dup3\n        /* \"#utility.yul\":1468:1502   */\n      and\n        /* \"#utility.yul\":1457:1502   */\n      swap1\n      pop\n        /* \"#utility.yul\":1403:1508   */\n      swap2\n      swap1\n      pop\n      jump\t// out\n        /* \"#utility.yul\":1514:1634   */\n    tag_50:\n        /* \"#utility.yul\":1586:1609   */\n      tag_79\n        /* \"#utility.yul\":1603:1608   */\n      dup2\n        /* \"#utility.yul\":1586:1609   */\n      tag_49\n      jump\t// in\n    tag_79:\n        /* \"#utility.yul\":1579:1584   */\n      dup2\n        /* \"#utility.yul\":1576:1610   */\n      eq\n        /* \"#utility.yul\":1566:1628   */\n      tag_80\n      jumpi\n        /* \"#utility.yul\":1624:1625   */\n      0x00\n        /* \"#utility.yul\":1621:1622   */\n      dup1\n        /* \"#utility.yul\":1614:1626   */\n      revert\n        /* \"#utility.yul\":1566:1628   */\n    tag_80:\n        /* \"#utility.yul\":1514:1634   */\n      pop\n      jump\t// out\n        /* \"#utility.yul\":1640:1781   */\n    tag_51:\n        /* \"#utility.yul\":1696:1701   */\n      0x00\n        /* \"#utility.yul\":1727:1733   */\n      dup2\n        /* \"#utility.yul\":1721:1734   */\n      mload\n        /* \"#utility.yul\":1712:1734   */\n      swap1\n      pop\n        /* \"#utility.yul\":1743:1775   */\n      tag_82\n        /* \"#utility.yul\":1769:1774   */\n      dup2\n        /* \"#utility.yul\":1743:1775   */\n      tag_50\n      jump\t// in\n    tag_82:\n        /* \"#utility.yul\":1640:1781   */\n      swap3\n      swap2\n      pop\n      pop\n      jump\t// out\n        /* \"#utility.yul\":1787:1863   */\n    tag_52:\n        /* \"#utility.yul\":1823:1830   */\n      0x00\n        /* \"#utility.yul\":1852:1857   */\n      dup2\n        /* \"#utility.yul\":1841:1857   */\n      swap1\n      pop\n        /* \"#utility.yul\":1787:1863   */\n      swap2\n      swap1\n      pop\n      jump\t// out\n        /* \"#utility.yul\":1869:1989   */\n    tag_53:\n        /* \"#utility.yul\":1941:1964   */\n      tag_85\n        /* \"#utility.yul\":1958:1963   */\n      dup2\n        /* \"#utility.yul\":1941:1964   */\n      tag_52\n      jump\t// in\n    tag_85:\n        /* \"#utility.yul\":1934:1939   */\n      dup2\n        /* \"#utility.yul\":1931:1965   */\n      eq\n        /* \"#utility.yul\":1921:1983   */\n      tag_86\n      jumpi\n        /* \"#utility.yul\":1979:1980   */\n      0x00\n        /* \"#utility.yul\":1976:1977   */\n      dup1\n        /* \"#utility.yul\":1969:1981   */\n      revert\n        /* \"#utility.yul\":1921:1983   */\n    tag_86:\n        /* \"#utility.yul\":1869:1989   */\n      pop\n      jump\t// out\n        /* \"#utility.yul\":1995:2136   */\n    tag_54:\n        /* \"#utility.yul\":2051:2056   */\n      0x00\n        /* \"#utility.yul\":2082:2088   */\n      dup2\n        /* \"#utility.yul\":2076:2089   */\n      mload\n        /* \"#utility.yul\":2067:2089   */\n      swap1\n      pop\n        /* \"#utility.yul\":2098:2130   */\n      tag_88\n        /* \"#utility.yul\":2124:2129   */\n      dup2\n        /* \"#utility.yul\":2098:2130   */\n      tag_53\n      jump\t// in\n    tag_88:\n        /* \"#utility.yul\":1995:2136   */\n      swap3\n      swap2\n      pop\n      pop\n      jump\t// out\n        /* \"#utility.yul\":2142:3113   */\n    tag_35:\n        /* \"#utility.yul\":2245:2251   */\n      0x00\n        /* \"#utility.yul\":2253:2259   */\n      dup1\n        /* \"#utility.yul\":2261:2267   */\n      0x00\n        /* \"#utility.yul\":2269:2275   */\n      dup1\n        /* \"#utility.yul\":2277:2283   */\n      0x00\n        /* \"#utility.yul\":2326:2329   */\n      0xa0\n        /* \"#utility.yul\":2314:2323   */\n      dup7\n        /* \"#utility.yul\":2305:2312   */\n      dup9\n        /* \"#utility.yul\":2301:2324   */\n      sub\n        /* \"#utility.yul\":2297:2330   */\n      slt\n        /* \"#utility.yul\":2294:2414   */\n      iszero\n      tag_90\n      jumpi\n        /* \"#utility.yul\":2333:2412   */\n      tag_91\n      tag_45\n      jump\t// in\n    tag_91:\n        /* \"#utility.yul\":2294:2414   */\n    tag_90:\n        /* \"#utility.yul\":2453:2454   */\n      0x00\n        /* \"#utility.yul\":2478:2541   */\n      tag_92\n        /* \"#utility.yul\":2533:2540   */\n      dup9\n        /* \"#utility.yul\":2524:2530   */\n      dup3\n        /* \"#utility.yul\":2513:2522   */\n      dup10\n        /* \"#utility.yul\":2509:2531   */\n      add\n        /* \"#utility.yul\":2478:2541   */\n      tag_51\n      jump\t// in\n    tag_92:\n        /* \"#utility.yul\":2468:2541   */\n      swap6\n      pop\n        /* \"#utility.yul\":2424:2551   */\n      pop\n        /* \"#utility.yul\":2590:2592   */\n      0x20\n        /* \"#utility.yul\":2616:2679   */\n      tag_93\n        /* \"#utility.yul\":2671:2678   */\n      dup9\n        /* \"#utility.yul\":2662:2668   */\n      dup3\n        /* \"#utility.yul\":2651:2660   */\n      dup10\n        /* \"#utility.yul\":2647:2669   */\n      add\n        /* \"#utility.yul\":2616:2679   */\n      tag_54\n      jump\t// in\n    tag_93:\n        /* \"#utility.yul\":2606:2679   */\n      swap5\n      pop\n        /* \"#utility.yul\":2561:2689   */\n      pop\n        /* \"#utility.yul\":2728:2730   */\n      0x40\n        /* \"#utility.yul\":2754:2818   */\n      tag_94\n        /* \"#utility.yul\":2810:2817   */\n      dup9\n        /* \"#utility.yul\":2801:2807   */\n      dup3\n        /* \"#utility.yul\":2790:2799   */\n      dup10\n        /* \"#utility.yul\":2786:2808   */\n      add\n        /* \"#utility.yul\":2754:2818   */\n      tag_48\n      jump\t// in\n    tag_94:\n        /* \"#utility.yul\":2744:2818   */\n      swap4\n      pop\n        /* \"#utility.yul\":2699:2828   */\n      pop\n        /* \"#utility.yul\":2867:2869   */\n      0x60\n        /* \"#utility.yul\":2893:2957   */\n      tag_95\n        /* \"#utility.yul\":2949:2956   */\n      dup9\n        /* \"#utility.yul\":2940:2946   */\n      dup3\n        /* \"#utility.yul\":2929:2938   */\n      dup10\n        /* \"#utility.yul\":2925:2947   */\n      add\n        /* \"#utility.yul\":2893:2957   */\n      tag_48\n      jump\t// in\n    tag_95:\n        /* \"#utility.yul\":2883:2957   */\n      swap3\n      pop\n        /* \"#utility.yul\":2838:2967   */\n      pop\n        /* \"#utility.yul\":3006:3009   */\n      0x80\n        /* \"#utility.yul\":3033:3096   */\n      tag_96\n        /* \"#utility.yul\":3088:3095   */\n      dup9\n        /* \"#utility.yul\":3079:3085   */\n      dup3\n        /* \"#utility.yul\":3068:3077   */\n      dup10\n        /* \"#utility.yul\":3064:3086   */\n      add\n        /* \"#utility.yul\":3033:3096   */\n      tag_51\n      jump\t// in\n    tag_96:\n        /* \"#utility.yul\":3023:3096   */\n      swap2\n      pop\n        /* \"#utility.yul\":2977:3106   */\n      pop\n        /* \"#utility.yul\":2142:3113   */\n      swap3\n      swap6\n      pop\n      swap3\n      swap6\n      swap1\n      swap4\n      pop\n      jump\t// out\n        /* \"#utility.yul\":3119:3299   */\n    tag_55:\n        /* \"#utility.yul\":3167:3244   */\n      0x4e487b7100000000000000000000000000000000000000000000000000000000\n        /* \"#utility.yul\":3164:3165   */\n      0x00\n        /* \"#utility.yul\":3157:3245   */\n      mstore\n        /* \"#utility.yul\":3264:3268   */\n      0x11\n        /* \"#utility.yul\":3261:3262   */\n      0x04\n        /* \"#utility.yul\":3254:3269   */\n      mstore\n        /* \"#utility.yul\":3288:3292   */\n      0x24\n        /* \"#utility.yul\":3285:3286   */\n      0x00\n        /* \"#utility.yul\":3278:3293   */\n      revert\n        /* \"#utility.yul\":3305:3715   */\n    tag_37:\n        /* \"#utility.yul\":3345:3352   */\n      0x00\n        /* \"#utility.yul\":3368:3388   */\n      tag_99\n        /* \"#utility.yul\":3386:3387   */\n      dup3\n        /* \"#utility.yul\":3368:3388   */\n      tag_42\n      jump\t// in\n    tag_99:\n        /* \"#utility.yul\":3363:3388   */\n      swap2\n      pop\n        /* \"#utility.yul\":3402:3422   */\n      tag_100\n        /* \"#utility.yul\":3420:3421   */\n      dup4\n        /* \"#utility.yul\":3402:3422   */\n      tag_42\n      jump\t// in\n    tag_100:\n        /* \"#utility.yul\":3397:3422   */\n      swap3\n      pop\n        /* \"#utility.yul\":3457:3458   */\n      dup3\n        /* \"#utility.yul\":3454:3455   */\n      dup3\n        /* \"#utility.yul\":3450:3459   */\n      mul\n        /* \"#utility.yul\":3479:3509   */\n      tag_101\n        /* \"#utility.yul\":3497:3508   */\n      dup2\n        /* \"#utility.yul\":3479:3509   */\n      tag_42\n      jump\t// in\n    tag_101:\n        /* \"#utility.yul\":3468:3509   */\n      swap2\n      pop\n        /* \"#utility.yul\":3658:3659   */\n      dup3\n        /* \"#utility.yul\":3649:3656   */\n      dup3\n        /* \"#utility.yul\":3645:3660   */\n      div\n        /* \"#utility.yul\":3642:3643   */\n      dup5\n        /* \"#utility.yul\":3639:3661   */\n      eq\n        /* \"#utility.yul\":3619:3620   */\n      dup4\n        /* \"#utility.yul\":3612:3621   */\n      iszero\n        /* \"#utility.yul\":3592:3675   */\n      or\n        /* \"#utility.yul\":3569:3708   */\n      tag_102\n      jumpi\n        /* \"#utility.yul\":3688:3706   */\n      tag_103\n      tag_55\n      jump\t// in\n    tag_103:\n        /* \"#utility.yul\":3569:3708   */\n    tag_102:\n        /* \"#utility.yul\":3353:3715   */\n      pop\n        /* \"#utility.yul\":3305:3715   */\n      swap3\n      swap2\n      pop\n      pop\n      jump\t// out\n        /* \"#utility.yul\":3721:3890   */\n    tag_56:\n        /* \"#utility.yul\":3805:3816   */\n      0x00\n        /* \"#utility.yul\":3839:3845   */\n      dup3\n        /* \"#utility.yul\":3834:3837   */\n      dup3\n        /* \"#utility.yul\":3827:3846   */\n      mstore\n        /* \"#utility.yul\":3879:3883   */\n      0x20\n        /* \"#utility.yul\":3874:3877   */\n      dup3\n        /* \"#utility.yul\":3870:3884   */\n      add\n        /* \"#utility.yul\":3855:3884   */\n      swap1\n      pop\n        /* \"#utility.yul\":3721:3890   */\n      swap3\n      swap2\n      pop\n      pop\n      jump\t// out\n        /* \"#utility.yul\":3896:4070   */\n    tag_57:\n        /* \"#utility.yul\":4036:4062   */\n      0x6469646e27742073656e6420656e6f7567682065746865720000000000000000\n        /* \"#utility.yul\":4032:4033   */\n      0x00\n        /* \"#utility.yul\":4024:4030   */\n      dup3\n        /* \"#utility.yul\":4020:4034   */\n      add\n        /* \"#utility.yul\":4013:4063   */\n      mstore\n        /* \"#utility.yul\":3896:4070   */\n      pop\n      jump\t// out\n        /* \"#utility.yul\":4076:4442   */\n    tag_58:\n        /* \"#utility.yul\":4218:4221   */\n      0x00\n        /* \"#utility.yul\":4239:4306   */\n      tag_107\n        /* \"#utility.yul\":4303:4305   */\n      0x18\n        /* \"#utility.yul\":4298:4301   */\n      dup4\n        /* \"#utility.yul\":4239:4306   */\n      tag_56\n      jump\t// in\n    tag_107:\n        /* \"#utility.yul\":4232:4306   */\n      swap2\n      pop\n        /* \"#utility.yul\":4315:4408   */\n      tag_108\n        /* \"#utility.yul\":4404:4407   */\n      dup3\n        /* \"#utility.yul\":4315:4408   */\n      tag_57\n      jump\t// in\n    tag_108:\n        /* \"#utility.yul\":4433:4435   */\n      0x20\n        /* \"#utility.yul\":4428:4431   */\n      dup3\n        /* \"#utility.yul\":4424:4436   */\n      add\n        /* \"#utility.yul\":4417:4436   */\n      swap1\n      pop\n        /* \"#utility.yul\":4076:4442   */\n      swap2\n      swap1\n      pop\n      jump\t// out\n        /* \"#utility.yul\":4448:4867   */\n    tag_41:\n        /* \"#utility.yul\":4614:4618   */\n      0x00\n        /* \"#utility.yul\":4652:4654   */\n      0x20\n        /* \"#utility.yul\":4641:4650   */\n      dup3\n        /* \"#utility.yul\":4637:4655   */\n      add\n        /* \"#utility.yul\":4629:4655   */\n      swap1\n      pop\n        /* \"#utility.yul\":4701:4710   */\n      dup2\n        /* \"#utility.yul\":4695:4699   */\n      dup2\n        /* \"#utility.yul\":4691:4711   */\n      sub\n        /* \"#utility.yul\":4687:4688   */\n      0x00\n        /* \"#utility.yul\":4676:4685   */\n      dup4\n        /* \"#utility.yul\":4672:4689   */\n      add\n        /* \"#utility.yul\":4665:4712   */\n      mstore\n        /* \"#utility.yul\":4729:4860   */\n      tag_110\n        /* \"#utility.yul\":4855:4859   */\n      dup2\n        /* \"#utility.yul\":4729:4860   */\n      tag_58\n      jump\t// in\n    tag_110:\n        /* \"#utility.yul\":4721:4860   */\n      swap1\n      pop\n        /* \"#utility.yul\":4448:4867   */\n      swap2\n      swap1\n      pop\n      jump\t// out\n\n    auxdata: 0xa264697066735822122022aa5f178fb323d8bd0e78d06c7777b118ca70d2c2d29513d58009d09dc99d7064736f6c63430008130033\n}\n",
				"bytecode": {
					"linkReferences": {},
					"object": "6080604052600560005561051c806100186000396000f3fe60806040526004361061004a5760003560e01c8063098de8201461004f5780630d8e6e2c1461007a57806350ce2420146100a557806398d5fdca146100bc578063b60d4288146100e7575b600080fd5b34801561005b57600080fd5b506100646100f1565b604051610071919061028c565b60405180910390f35b34801561008657600080fd5b5061008f6100f7565b60405161009c919061028c565b60405180910390f35b3480156100b157600080fd5b506100ba610181565b005b3480156100c857600080fd5b506100d1610183565b6040516100de919061028c565b60405180910390f35b6100ef61022c565b005b60005481565b6000731b44f3514812d835eb1bdb0acb33d3fa3351ee4373ffffffffffffffffffffffffffffffffffffffff166354fd4d506040518163ffffffff1660e01b8152600401602060405180830381865afa158015610158573d6000803e3d6000fd5b505050506040513d601f19601f8201168201806040525081019061017c91906102d8565b905090565b565b600080731b44f3514812d835eb1bdb0acb33d3fa3351ee43905060008173ffffffffffffffffffffffffffffffffffffffff1663feaf968c6040518163ffffffff1660e01b815260040160a060405180830381865afa1580156101ea573d6000803e3d6000fd5b505050506040513d601f19601f8201168201806040525081019061020e919061037d565b5050509150506402540be400816102259190610427565b9250505090565b600054341015610271576040517f08c379a0000000000000000000000000000000000000000000000000000000008152600401610268906104c6565b60405180910390fd5b565b6000819050919050565b61028681610273565b82525050565b60006020820190506102a1600083018461027d565b92915050565b600080fd5b6102b581610273565b81146102c057600080fd5b50565b6000815190506102d2816102ac565b92915050565b6000602082840312156102ee576102ed6102a7565b5b60006102fc848285016102c3565b91505092915050565b600069ffffffffffffffffffff82169050919050565b61032481610305565b811461032f57600080fd5b50565b6000815190506103418161031b565b92915050565b6000819050919050565b61035a81610347565b811461036557600080fd5b50565b60008151905061037781610351565b92915050565b600080600080600060a08688031215610399576103986102a7565b5b60006103a788828901610332565b95505060206103b888828901610368565b94505060406103c9888289016102c3565b93505060606103da888289016102c3565b92505060806103eb88828901610332565b9150509295509295909350565b7f4e487b7100000000000000000000000000000000000000000000000000000000600052601160045260246000fd5b600061043282610273565b915061043d83610273565b925082820261044b81610273565b91508282048414831517610462576104616103f8565b5b5092915050565b600082825260208201905092915050565b7f6469646e27742073656e6420656e6f7567682065746865720000000000000000600082015250565b60006104b0601883610469565b91506104bb8261047a565b602082019050919050565b600060208201905081810360008301526104df816104a3565b905091905056fea264697066735822122022aa5f178fb323d8bd0e78d06c7777b118ca70d2c2d29513d58009d09dc99d7064736f6c63430008130033",
					"opcodes": "PUSH1 0x80 PUSH1 0x40 MSTORE PUSH1 0x5 PUSH1 0x0 SSTORE PUSH2 0x51C DUP1 PUSH2 0x18 PUSH1 0x0 CODECOPY PUSH1 0x0 RETURN INVALID PUSH1 0x80 PUSH1 0x40 MSTORE PUSH1 0x4 CALLDATASIZE LT PUSH2 0x4A JUMPI PUSH1 0x0 CALLDATALOAD PUSH1 0xE0 SHR DUP1 PUSH4 0x98DE820 EQ PUSH2 0x4F JUMPI DUP1 PUSH4 0xD8E6E2C EQ PUSH2 0x7A JUMPI DUP1 PUSH4 0x50CE2420 EQ PUSH2 0xA5 JUMPI DUP1 PUSH4 0x98D5FDCA EQ PUSH2 0xBC JUMPI DUP1 PUSH4 0xB60D4288 EQ PUSH2 0xE7 JUMPI JUMPDEST PUSH1 0x0 DUP1 REVERT JUMPDEST CALLVALUE DUP1 ISZERO PUSH2 0x5B JUMPI PUSH1 0x0 DUP1 REVERT JUMPDEST POP PUSH2 0x64 PUSH2 0xF1 JUMP JUMPDEST PUSH1 0x40 MLOAD PUSH2 0x71 SWAP2 SWAP1 PUSH2 0x28C JUMP JUMPDEST PUSH1 0x40 MLOAD DUP1 SWAP2 SUB SWAP1 RETURN JUMPDEST CALLVALUE DUP1 ISZERO PUSH2 0x86 JUMPI PUSH1 0x0 DUP1 REVERT JUMPDEST POP PUSH2 0x8F PUSH2 0xF7 JUMP JUMPDEST PUSH1 0x40 MLOAD PUSH2 0x9C SWAP2 SWAP1 PUSH2 0x28C JUMP JUMPDEST PUSH1 0x40 MLOAD DUP1 SWAP2 SUB SWAP1 RETURN JUMPDEST CALLVALUE DUP1 ISZERO PUSH2 0xB1 JUMPI PUSH1 0x0 DUP1 REVERT JUMPDEST POP PUSH2 0xBA PUSH2 0x181 JUMP JUMPDEST STOP JUMPDEST CALLVALUE DUP1 ISZERO PUSH2 0xC8 JUMPI PUSH1 0x0 DUP1 REVERT JUMPDEST POP PUSH2 0xD1 PUSH2 0x183 JUMP JUMPDEST PUSH1 0x40 MLOAD PUSH2 0xDE SWAP2 SWAP1 PUSH2 0x28C JUMP JUMPDEST PUSH1 0x40 MLOAD DUP1 SWAP2 SUB SWAP1 RETURN JUMPDEST PUSH2 0xEF PUSH2 0x22C JUMP JUMPDEST STOP JUMPDEST PUSH1 0x0 SLOAD DUP2 JUMP JUMPDEST PUSH1 0x0 PUSH20 0x1B44F3514812D835EB1BDB0ACB33D3FA3351EE43 PUSH20 0xFFFFFFFFFFFFFFFFFFFFFFFFFFFFFFFFFFFFFFFF AND PUSH4 0x54FD4D50 PUSH1 0x40 MLOAD DUP2 PUSH4 0xFFFFFFFF AND PUSH1 0xE0 SHL DUP2 MSTORE PUSH1 0x4 ADD PUSH1 0x20 PUSH1 0x40 MLOAD DUP1 DUP4 SUB DUP2 DUP7 GAS STATICCALL ISZERO DUP1 ISZERO PUSH2 0x158 JUMPI RETURNDATASIZE PUSH1 0x0 DUP1 RETURNDATACOPY RETURNDATASIZE PUSH1 0x0 REVERT JUMPDEST POP POP POP POP PUSH1 0x40 MLOAD RETURNDATASIZE PUSH1 0x1F NOT PUSH1 0x1F DUP3 ADD AND DUP3 ADD DUP1 PUSH1 0x40 MSTORE POP DUP2 ADD SWAP1 PUSH2 0x17C SWAP2 SWAP1 PUSH2 0x2D8 JUMP JUMPDEST SWAP1 POP SWAP1 JUMP JUMPDEST JUMP JUMPDEST PUSH1 0x0 DUP1 PUSH20 0x1B44F3514812D835EB1BDB0ACB33D3FA3351EE43 SWAP1 POP PUSH1 0x0 DUP2 PUSH20 0xFFFFFFFFFFFFFFFFFFFFFFFFFFFFFFFFFFFFFFFF AND PUSH4 0xFEAF968C PUSH1 0x40 MLOAD DUP2 PUSH4 0xFFFFFFFF AND PUSH1 0xE0 SHL DUP2 MSTORE PUSH1 0x4 ADD PUSH1 0xA0 PUSH1 0x40 MLOAD DUP1 DUP4 SUB DUP2 DUP7 GAS STATICCALL ISZERO DUP1 ISZERO PUSH2 0x1EA JUMPI RETURNDATASIZE PUSH1 0x0 DUP1 RETURNDATACOPY RETURNDATASIZE PUSH1 0x0 REVERT JUMPDEST POP POP POP POP PUSH1 0x40 MLOAD RETURNDATASIZE PUSH1 0x1F NOT PUSH1 0x1F DUP3 ADD AND DUP3 ADD DUP1 PUSH1 0x40 MSTORE POP DUP2 ADD SWAP1 PUSH2 0x20E SWAP2 SWAP1 PUSH2 0x37D JUMP JUMPDEST POP POP POP SWAP2 POP POP PUSH5 0x2540BE400 DUP2 PUSH2 0x225 SWAP2 SWAP1 PUSH2 0x427 JUMP JUMPDEST SWAP3 POP POP POP SWAP1 JUMP JUMPDEST PUSH1 0x0 SLOAD CALLVALUE LT ISZERO PUSH2 0x271 JUMPI PUSH1 0x40 MLOAD PUSH32 0x8C379A000000000000000000000000000000000000000000000000000000000 DUP2 MSTORE PUSH1 0x4 ADD PUSH2 0x268 SWAP1 PUSH2 0x4C6 JUMP JUMPDEST PUSH1 0x40 MLOAD DUP1 SWAP2 SUB SWAP1 REVERT JUMPDEST JUMP JUMPDEST PUSH1 0x0 DUP2 SWAP1 POP SWAP2 SWAP1 POP JUMP JUMPDEST PUSH2 0x286 DUP2 PUSH2 0x273 JUMP JUMPDEST DUP3 MSTORE POP POP JUMP JUMPDEST PUSH1 0x0 PUSH1 0x20 DUP3 ADD SWAP1 POP PUSH2 0x2A1 PUSH1 0x0 DUP4 ADD DUP5 PUSH2 0x27D JUMP JUMPDEST SWAP3 SWAP2 POP POP JUMP JUMPDEST PUSH1 0x0 DUP1 REVERT JUMPDEST PUSH2 0x2B5 DUP2 PUSH2 0x273 JUMP JUMPDEST DUP2 EQ PUSH2 0x2C0 JUMPI PUSH1 0x0 DUP1 REVERT JUMPDEST POP JUMP JUMPDEST PUSH1 0x0 DUP2 MLOAD SWAP1 POP PUSH2 0x2D2 DUP2 PUSH2 0x2AC JUMP JUMPDEST SWAP3 SWAP2 POP POP JUMP JUMPDEST PUSH1 0x0 PUSH1 0x20 DUP3 DUP5 SUB SLT ISZERO PUSH2 0x2EE JUMPI PUSH2 0x2ED PUSH2 0x2A7 JUMP JUMPDEST JUMPDEST PUSH1 0x0 PUSH2 0x2FC DUP5 DUP3 DUP6 ADD PUSH2 0x2C3 JUMP JUMPDEST SWAP2 POP POP SWAP3 SWAP2 POP POP JUMP JUMPDEST PUSH1 0x0 PUSH10 0xFFFFFFFFFFFFFFFFFFFF DUP3 AND SWAP1 POP SWAP2 SWAP1 POP JUMP JUMPDEST PUSH2 0x324 DUP2 PUSH2 0x305 JUMP JUMPDEST DUP2 EQ PUSH2 0x32F JUMPI PUSH1 0x0 DUP1 REVERT JUMPDEST POP JUMP JUMPDEST PUSH1 0x0 DUP2 MLOAD SWAP1 POP PUSH2 0x341 DUP2 PUSH2 0x31B JUMP JUMPDEST SWAP3 SWAP2 POP POP JUMP JUMPDEST PUSH1 0x0 DUP2 SWAP1 POP SWAP2 SWAP1 POP JUMP JUMPDEST PUSH2 0x35A DUP2 PUSH2 0x347 JUMP JUMPDEST DUP2 EQ PUSH2 0x365 JUMPI PUSH1 0x0 DUP1 REVERT JUMPDEST POP JUMP JUMPDEST PUSH1 0x0 DUP2 MLOAD SWAP1 POP PUSH2 0x377 DUP2 PUSH2 0x351 JUMP JUMPDEST SWAP3 SWAP2 POP POP JUMP JUMPDEST PUSH1 0x0 DUP1 PUSH1 0x0 DUP1 PUSH1 0x0 PUSH1 0xA0 DUP7 DUP9 SUB SLT ISZERO PUSH2 0x399 JUMPI PUSH2 0x398 PUSH2 0x2A7 JUMP JUMPDEST JUMPDEST PUSH1 0x0 PUSH2 0x3A7 DUP9 DUP3 DUP10 ADD PUSH2 0x332 JUMP JUMPDEST SWAP6 POP POP PUSH1 0x20 PUSH2 0x3B8 DUP9 DUP3 DUP10 ADD PUSH2 0x368 JUMP JUMPDEST SWAP5 POP POP PUSH1 0x40 PUSH2 0x3C9 DUP9 DUP3 DUP10 ADD PUSH2 0x2C3 JUMP JUMPDEST SWAP4 POP POP PUSH1 0x60 PUSH2 0x3DA DUP9 DUP3 DUP10 ADD PUSH2 0x2C3 JUMP JUMPDEST SWAP3 POP POP PUSH1 0x80 PUSH2 0x3EB DUP9 DUP3 DUP10 ADD PUSH2 0x332 JUMP JUMPDEST SWAP2 POP POP SWAP3 SWAP6 POP SWAP3 SWAP6 SWAP1 SWAP4 POP JUMP JUMPDEST PUSH32 0x4E487B7100000000000000000000000000000000000000000000000000000000 PUSH1 0x0 MSTORE PUSH1 0x11 PUSH1 0x4 MSTORE PUSH1 0x24 PUSH1 0x0 REVERT JUMPDEST PUSH1 0x0 PUSH2 0x432 DUP3 PUSH2 0x273 JUMP JUMPDEST SWAP2 POP PUSH2 0x43D DUP4 PUSH2 0x273 JUMP JUMPDEST SWAP3 POP DUP3 DUP3 MUL PUSH2 0x44B DUP2 PUSH2 0x273 JUMP JUMPDEST SWAP2 POP DUP3 DUP3 DIV DUP5 EQ DUP4 ISZERO OR PUSH2 0x462 JUMPI PUSH2 0x461 PUSH2 0x3F8 JUMP JUMPDEST JUMPDEST POP SWAP3 SWAP2 POP POP JUMP JUMPDEST PUSH1 0x0 DUP3 DUP3 MSTORE PUSH1 0x20 DUP3 ADD SWAP1 POP SWAP3 SWAP2 POP POP JUMP JUMPDEST PUSH32 0x6469646E27742073656E6420656E6F7567682065746865720000000000000000 PUSH1 0x0 DUP3 ADD MSTORE POP JUMP JUMPDEST PUSH1 0x0 PUSH2 0x4B0 PUSH1 0x18 DUP4 PUSH2 0x469 JUMP JUMPDEST SWAP2 POP PUSH2 0x4BB DUP3 PUSH2 0x47A JUMP JUMPDEST PUSH1 0x20 DUP3 ADD SWAP1 POP SWAP2 SWAP1 POP JUMP JUMPDEST PUSH1 0x0 PUSH1 0x20 DUP3 ADD SWAP1 POP DUP2 DUP2 SUB PUSH1 0x0 DUP4 ADD MSTORE PUSH2 0x4DF DUP2 PUSH2 0x4A3 JUMP JUMPDEST SWAP1 POP SWAP2 SWAP1 POP JUMP INVALID LOG2 PUSH5 0x6970667358 0x22 SLT KECCAK256 0x22 0xAA 0x5F OR DUP16 0xB3 0x23 0xD8 0xBD 0xE PUSH25 0xD06C7777B118CA70D2C2D29513D58009D09DC99D7064736F6C PUSH4 0x43000813 STOP CALLER "
				},
				"gasEstimates": {
					"creation": {
						"codeDepositCost": "261600",
						"executionCost": "22382",
						"totalCost": "283982"
					},
					"external": {
						"fund()": "2600",
						"getConversationRate()": "166",
						"getPrice()": "infinite",
						"getVersion()": "infinite",
						"minimumUsd()": "2407"
					}
				},
				"methodIdentifiers": {
					"fund()": "b60d4288",
					"getConversationRate()": "50ce2420",
					"getPrice()": "98d5fdca",
					"getVersion()": "0d8e6e2c",
					"minimumUsd()": "098de820"
				}
			},
			"storageLayout": {
				"storage": [
					{
						"astId": 56,
						"contract": "FundMe.sol:FundMe",
						"label": "minimumUsd",
						"offset": 0,
						"slot": "0",
						"type": "t_uint256"
					}
				],
				"types": {
					"t_uint256": {
						"encoding": "inplace",
						"label": "uint256",
						"numberOfBytes": "32"
					}
				}
			},
			"userdoc": {
				"kind": "user",
				"methods": {},
				"version": 1
			}
		}
	}
}